:10000000020003787FE4F6D8FD75811702004A02EA
:10001000008FE493A3F8E493A34003F68001F20871
:10002000DFF48029E493A3F85407240CC8C333C435
:10003000540F4420C8834004F456800146F6DFE4A0
:10004000800B0102040810204080900106E47E012C
:100050009360BCA3FF543F30E509541FFEE493A313
:1000600060010ECF54C025E060A840B8E493A3FA25
:10007000E493A3F8E493A3C8C582C8CAC583CAF0B1
:10008000A3C8C582C8CAC583CADFE9DEE780BE75DA
:1000900090EFE4FBEBD394037480948050F12090B4
:1000A0000BEB25E025E02408F8E6F58020910BEB2A
:1000B00025E025E02409F8E6F58020920BEB25E009
:1000C00025E0240AF8E6F58020930BEB25E025E0F7
:1000D000240BF8E6F5807F0A1200ECAF9043070F7F
:1000E000EF25E0FF43070F8F900B80A8AE071FEEB0
:1000F0006013E4FCFDC3ED947BEC940050EE0DBD69
:1001000000010C80F0221008C0F9A4B0999282F886
:0901100080908883C6A1868E0050
:00000001FF
