:020000040800F2
:100000008004002049010008690300083503000846
:100010006503000891010008CD08000800000000F9
:10002000000000000000000000000000C104000803
:10003000FB010008000000006B030008AD0500088C
:100040006301000863010008630100086301000800
:1000500063010008630100086301000863010008F0
:1000600063010008630100086301000863010008E0
:1000700063010008630100086301000863010008D0
:1000800063010008630100086301000863010008C0
:1000900063010008630100086301000863010008B0
:1000A00063010008630100086301000863010008A0
:1000B0006301000863010008630100086301000890
:1000C0006301000863010008630100086301000880
:1000D0006301000863010008630100086301000870
:1000E0006301000863010008630100086301000860
:1000F0006301000863010008630100086301000850
:10010000630100086301000863010008630100083F
:10011000630100086301000863010008630100082F
:10012000630100086301000863010008630100081F
:10013000DFF810D000F01AF8004800474509000821
:10014000AFF300808004002006488047064800473F
:10015000FEE7FEE7FEE7FEE7FEE7FEE7FEE7FEE777
:10016000FEE7FEE7B105000831010008064C074D27
:1001700006E0E06840F0010394E807009847103477
:10018000AC42F6D3FFF7D8FFC0090008E009000829
:1001900000BFFEE721B1026842F00102026004E004
:1001A00002684FF6FE731A40026070471AB1036886
:1001B0000B43036002E003688B430360704710B594
:1001C0000022026847F6F0739A430C6A8B68234357
:1001D0000C6923434C6923438C692343CC69234333
:1001E0004C6A23438C6A23431A430260CB68436002
:1001F0000B6883604B68C36010BD7047002107E047
:10020000002200E0521C42F210739A42FAD3491CB9
:100210008142F5D370472DE9F041024600250026C2
:10022000002000230024002791F803C00CF00F05E4
:1002300091F803C00CF0100CBCF1000F03D091F842
:1002400002C04CEA050591F800C0BCF1000F31D0A6
:10025000146800202BE04FF0010C0CFA00F3B1F809
:1002600000C00CEA03069E4220D183004FF00F0C21
:100270000CFA03F7BC4305FA03FC4CEA040491F8BA
:1002800003C0BCF1280F06D14FF0010C0CFA00FCA2
:10029000C2F814C00AE091F803C0BCF1480F05D1C0
:1002A0004FF0010C0CFA00FCC2F810C0401C0828EA
:1002B000D1D31460B1F800C0BCF1FF0F34DD546835
:1002C00000202EE000F1080C4FF0010808FA0CF3B2
:1002D000B1F800C00CEA03069E4221D183004FF022
:1002E0000F0C0CFA03F7BC4305FA03FC4CEA0404B8
:1002F00091F803C0BCF1280F05D100F1080C08FAF1
:100300000CF8C2F8148091F803C0BCF1480F07D173
:1003100000F1080C4FF0010808FA0CF8C2F8108040
:10032000401C0828CED35460BDE8F081416170477D
:100330000161704700BFFEE708B50121082000F009
:1003400035F82020ADF8000010208DF803000320C0
:100350008DF8020069460248FFF75DFF08BD000006
:10036000000C014000BFFEE77047704729B1064A04
:1003700052690243044B5A6104E0034A52698243C2
:10038000014B5A61704700000010024029B1064A33
:1003900012690243044B1A6104E0034A1269824362
:1003A000014B1A61704700000010024029B1064A53
:1003B00092690243044B9A6104E0034A92698243C2
:1003C000014B9A61704700000010024029B1064AB3
:1003D000D2680243044BDA6004E0034AD2688243E5
:1003E000014BDA60704700000010024030B5002178
:1003F0000022002400232D4D6D6805F00C0121B171
:10040000042905D0082923D105E0294D056022E003
:10041000274D05601FE0254D6D6805F47012234DD2
:100420006D6805F48034022505EB92421CB9214D1C
:10043000554305600BE01D4D6D6805F400351DB199
:100440001C4D5543056002E0194D5543056002E01F
:10045000174D056000BF00BF144D6D6805F0F00139
:100460000909154D6B5C0568DD4045600F4D6D68F1
:1004700005F4E061090A104D6B5C4568DD4085605C
:100480000A4D6D6805F46051C90A0B4D6B5C4568F7
:10049000DD40C560054D6D6805F44041890B074D91
:1004A0006B5CC568B5FBF3F5056130BD001002401B
:1004B00000127A0000093D0000000020100000201A
:1004C000704710B500F002F810BD00000CB5002018
:1004D000019000903348006840F480303149086052
:1004E00000BF3048006800F4003000900198401CC4
:1004F0000190009818B90198B0F5A06FF1D1294882
:10050000006800F4003010B10120009001E00020EC
:1005100000900098012843D12348006840F0100063
:10052000214908600846006820F00300086008467A
:10053000006840F0020008601A48406819494860A5
:100540000846406848600846406840F4806048605B
:100550000846406820F47C1048600846406840F433
:10056000E81048600846006840F08070086000BFEE
:100570000C48006800F000700028F9D00948406875
:1005800020F00300074948600846406840F0020038
:10059000486000BF0348406800F00C000828F9D10B
:1005A0000CBD000000100240002002407047000017
:1005B00010B51348006840F0010011490860084672
:1005C0004068104908400E494860084600680E49D6
:1005D00008400B4908600846006820F48020086045
:1005E0000846406820F4FE0048604FF41F00886011
:1005F000FFF767FF4FF000600449086010BD00007E
:10060000001002400000FFF8FFFFF6FE08ED00E0DA
:1006100001F40072B2F5007F00D100BFCA4302802E
:10062000704721B1828942F40052828104E08289BC
:100630004DF6FF731A40828170471AB1838A0B43CB
:10064000838202E0838A8B438382704710B504461D
:100650002048844209D101218803FFF7B7FE002119
:100660004FF48040FFF7B2FE32E01B48844209D1CC
:1006700001214804FFF78AFE00214FF40030FFF704
:1006800085FE25E01548844209D101218804FFF741
:100690007DFE00214FF48020FFF778FE18E010481F
:1006A000844209D10121C804FFF770FE00214FF4F4
:1006B0000020FFF76BFE0BE00A48844208D10121BD
:1006C0000805FFF763FE00214FF48010FFF75EFE80
:1006D00010BD0000003801400044004000480040C8
:1006E000004C00400050004002460020B1F5007F61
:1006F00000D100BF13880B400BB1012000E00020A7
:10070000704700002DE9F04786B005460E460024EC
:10071000A24600BFA1460027B08900B100BF2F4606
:100720002C8A4CF6FF700440F08804432C82AC897C
:100730004EF6F3100440B0883189084371890843AC
:100740000443AC81AC8A4FF6FF400440B0890443B7
:10075000AC8201A8FFF74AFE1F48874202D1DDF8AC
:1007600010A001E0DDF80CA0A88900F4004040B121
:100770000AEBCA0000EB0A1031684900B0FBF1F83F
:1007800007E00AEBCA0000EB0A1031688900B0FBF1
:10079000F1F86420B8FBF0F004012009642101FBAA
:1007A0001089A88900F4004040B1322000EBC90054
:1007B000B0FBF1F000F00700044308E0322000EB4A
:1007C00009106421B0FBF1F000F00F0004432C810C
:1007D00006B0BDE8F087000000380140C1F3080210
:1007E0008280704700B58BB001210846FFF7BEFD3F
:1007F000114800901148019010200290642003904D
:100800000020049080200590002006900790202072
:100810000890C001099000200A9069460848FFF737
:10082000CEFC01210648FFF7B5FC01220221044855
:10083000FFF7BCFC0BB000BD0438014018000020DD
:100840004400024000B585B0012144F20400FFF7E6
:10085000ADFD1C48FFF7FAFE4FF40070ADF8100034
:1008600003208DF8120018208DF8130004A91648F3
:10087000FFF7D1FC4FF48060ADF8100004208DF834
:10088000130004A91048FFF7C6FC4FF4E1300090B4
:100890000020ADF80400ADF80600ADF80800ADF892
:1008A0000C000C20ADF80A0069460648FFF72AFF45
:1008B00001210448FFF7B5FEE0210248FFF7A8FE3A
:1008C00005B000BD003801400008014000BFFEE750
:1008D000014A024900F013B8210900081400002061
:1008E00002E008C8121F08C1002AFAD170477047F9
:1008F000002001E001C1121F002AFBD170472DE941
:10090000F04116460F460446002503E03946B0473D
:10091000641C6D1C20780028F8D12846BDE8F081C1
:1009200070B504460D46E1B20548FFF757FF00BF1A
:1009300080210348FFF7D8FE0028F9D0204670BD7B
:1009400000380140FFF7F8FCFFF77CFFFFF74AFF94
:1009500011A0FFF7BDFF002404E041201549085510
:10096000601C84B2642CF8DB012280211248FFF75E
:1009700064FE0FE020211148FFF7DAFC4FF47A7093
:10098000FFF73CFC20210D48FFF7D0FC4FF47A70B4
:10099000FFF734FCEEE70000CAB9D3C3444D41B7BA
:1009A000BDCABDB4ABCAE4B4AEBFDACAFDBEDD0A8F
:1009B000000000001800002000380140000C014039
:1009C000E00900080000002018000000E00800080E
:1009D000F80900081800002068040000F00800086A
:1009E00000000000010203040102030406070809D5
:0809F0000204060800000000EB
:0400000508000131BD
:00000001FF
