:020000040800F2
:1000000010090020F90100085337000831350008B5
:1000100051370008D5140008993C00080000000082
:10002000000000000000000000000000573700083A
:100030002715000800000000553700085937000850
:10004000130200081302000813020008130200083C
:10005000130200081302000813020008130200082C
:10006000130200081302000813020008D914000844
:100070001302000813020008E5140008F114000838
:100080001302000813020008851300081302000879
:1000900013020008130200081302000813020008EC
:1000A00013020008130200081302000813020008DC
:1000B000D9370008130200081302000813020008D1
:1000C00013020008130200081302000813020008BC
:1000D000130200088D3C00081302000813020008F8
:1000E000130200081302000813020008130200089C
:1000F000130200081302000813020008130200088C
:10010000130200081302000813020008130200087B
:10011000130200081302000813020008130200086B
:10012000130200081302000813020008130200085B
:1001300000F002F800F050F80AA090E8000C8244A9
:100140008344AAF10107DA4501D100F045F8AFF286
:10015000090EBAE80F0013F0010F18BFFB1A43F0A5
:10016000010318470847000028470000103A24BF41
:1001700078C878C1FAD8520724BF30C830C144BF0C
:1001800004680C607047000000230024002500264E
:10019000103A28BF78C1FBD8520728BF30C148BFEA
:1001A0000B607047642900F08780002070471FB5FE
:1001B0009DE8030000F074FE01F00AF8040000203E
:1001C000002103F0C1FE401C606000F06DFA1FBD0D
:1001D00010B500F0D2FA10BD00F035FB1146FFF764
:1001E000E6FF03F087FD00F021FE03B4FFF7F0FF08
:1001F00003BC00F0E7FF00000948804709480047BA
:10020000FEE7FEE7FEE7FEE7FEE7FEE7FEE7FEE7C6
:10021000FEE7FEE704480549054A064B7047000023
:10022000D737000831010008100300201009002012
:1002300010050020100500200FB4044910B503AAD2
:10024000029800F0AFF910BC5DF814FB0802002022
:100250002DE9F0410E460446002020622046E16868
:10026000884730B3252805D0D4E901219047206A7A
:10027000401CF2E7E168204600278847050018D0B7
:10028000A5F14100192802D820354FF40067324605
:10029000294620462760FFF785FF40B1012804D09A
:1002A000F61D26F007060836D8E7361DD6E728469D
:1002B000DAE7206ABDE8F0812DE9F0410646002426
:1002C00010687529314616A510D0AFF300800028BC
:1002D00002DA404213A507E031688A0701D512A56A
:1002E00002E0490704D511A5012401E0AFF3008025
:1002F00000210A2206F1240709E0B0FBF2FCB0FB62
:10030000F2F302FB1C00303078541846491C0028D8
:10031000F3D123462A463046BDE8F04100F0E8B864
:10032000000000002D0000002B0000002000000055
:100330000FB400B589B00BA86A46009003480A992B
:1003400000F050F909B05DF814FB0000B401002082
:100350002DE9FF5F1D464FF0FF3B91464FF000082F
:100360005F46D5E90146A96901987F1C8847296A3B
:10037000824688470028F6D1BAF1FF3F0CD0002E04
:1003800024F4C06419DD600614D5BAF12B0F09D02E
:10039000BAF12D0F0ED103E0584604B0BDE8F09F2E
:1003A00044F48064A96901987F1C8847761E8246C0
:1003B000002E02DDBAF1300F03D0B9F1000F26D0C4
:1003C00032E0A969761E01987F1C44F400748847C6
:1003D000002E824605DDBAF1780F06D0BAF1580F2B
:1003E00003D0B9F1000F10D01EE0B9F1000F02D018
:1003F000B9F1100F18D1A969761E01987F1C24F459
:10040000007488478246102002E0082000E00A209D
:10041000814609E0A96908FB0908761E01987F1C3E
:1004200044F4007488478246002E05DD4946504654
:1004300000F0CAF80028EDDAE96901988847A005BC
:1004400002D46FF00100A8E7E00725D1600613D5BC
:10045000600502D5C8F1000000E0404629680A1D89
:100460002A600968220501D5087015E0220701D528
:10047000088011E008600FE02868011D296000680D
:10048000210502D580F8008006E0210702D5A0F8FA
:10049000008001E0C0F8008038467EE74FF000029F
:1004A00000B5134694469646203922BFA0E80C506A
:1004B000A0E80C50B1F12001BFF4F7AF090728BF45
:1004C000A0E80C5048BF0CC05DF804EB890028BFC1
:1004D00040F8042B08BF704748BF20F8022B11F0EA
:1004E000804F18BF00F8012B704770477047704766
:1004F0002DE9F0470D4699469246044600F124083E
:100500000168880604D5E06921F01001216000E04F
:100510000120A84201DD471B00E00027A1697A19EC
:1005200002EB0900081AA0612078C00602D4204618
:10053000AFF30080002608E0D4E901211AF8060094
:100540009047206A401C761C20624E45F4DB2078E0
:10055000C0060AD52046AFF3008006E0D4E90121A9
:1005600030209047206A401C2062381EA7F1010706
:10057000F4DC07E0D4E9012118F805009047206A6F
:10058000401C2062281EA5F10105F3DC2046AFF3D4
:1005900000802078000602D50220BDE8F087012007
:1005A000FBE70000074B70B50D467B4400F02BF8CD
:1005B0000446284600F074F810B14FF0FF3070BDCB
:1005C000204670BD2F3700003A2800D2303820F086
:1005D0002002412A01D3A2F13700884201D34FF013
:1005E000FF307047034B7B449361034B7B44D361E3
:1005F00000F022B8D33600006B00000001694A1CED
:1006000002610878704700B58FB0CDE90131002153
:10061000059105497944CDE9031011466846FFF775
:1006200017FE0FB000BD0000E5FFFFFF0268114498
:100630001378016018467047D160054979445161CB
:1006400004497944116200211161114600F050B94A
:10065000EDFFFFFF99020000704710B54FF0FF3427
:10066000C1688A020FD5036B42689A420BD10146DA
:1006700090F82520104600F019FB401C01D12046BF
:1006800010BD002010BD11F0C00FF8D10269416803
:100690009142F4D90268491E521CC0E90021F0E7DA
:1006A000007B00F08000704710B542485421FFF7EE
:1006B000F5FE41485421FFF7F1FE40485421FFF771
:1006C000EDFE3F493B483C4A3F4B08603D490A60CC
:1006D0003A491960531C0365481C106501200865E0
:1006E0003B48344A39A1784400F004FB20B938482B
:1006F00078440A3800F0A3FB37482F4A35A17844E4
:1007000000F0F8FA20B9344878440A3800F097FB32
:1007100032482A4A2FA1784400F0ECFA20B92F4839
:1007200078440A3800F08BFB40232248DC0000218B
:10073000224600F097FA20B125487844543800F05A
:100740007EFB1D4822464023002100F08BFA20B199
:1007500021487844543800F072FB18482246102390
:10076000002100F07FFA002806D01C487844BDE83C
:100770001040563800F063BB10BD104870B5006DD6
:1007800020F001040B4800F02BFB0B4800F028FB85
:100790000A4800F025FB09E0206D20F00105204605
:1007A00000F01EFB204600F073F82C46002CF3D11D
:1007B00070BD0000B4010020080200205C0200208F
:1007C00020000020240000202800002072000000EB
:1007D0000A41000077000000F6400000E2400000FF
:1007E0000EB5CDE9000100F0CDFC02906946012074
:1007F000ABBE0EBD08B5694600900220ABBE08BD79
:100800001FB58DE8070069460520ABBE04B010BDDA
:100810001FB58DE80F0069460620ABBEF6E708B5A8
:10082000694600900920ABBE08BD1CB5CDE90001AA
:1008300069460A20ABBE1CBD704708B569460090EA
:100840000C20ABBE08BD754600F000FBAE460500AF
:100850006946534620F00700854618B020B5FFF7DB
:10086000D9FCBDE820404FF000064FF000074FF0E4
:1008700000084FF0000B21F00701AC46ACE8C009BE
:10088000ACE8C009ACE8C009ACE8C0098D467047C7
:1008900070B50446051F00F0E7FA0068002C14BF8D
:1008A000446870BD002C18BFAC423CBF2046646851
:1008B000F8D301680A18AA4218BF456003D12A6814
:1008C00005461144016028684119A1421CBF6C60B3
:1008D00070BD6168696021680844286070BD10B50A
:1008E000044600F0B9FA0068005D00F0010010BD98
:1008F0002DE9F34F4FF0000A0C4656468DB001200B
:100900000C9001F10C000B9062690B98012190474B
:10091000051E2DD0252D2CD0216A8847C0B16269D3
:100920000B9801219047216A88470028F7D1626916
:10093000411E0B98904700E0761CA1690D988847EE
:10094000216A88470028F7D1E1690D988847DBE7DD
:10095000A1690D988847A842074601D1761CD3E7C4
:10096000E1690D9888477F1C02D1BAF1000F6FD062
:100970006CE162690B9800273D46394690472A286A
:1009800004D162690B98012190470125DFF8D082DC
:1009900062690B9801219047A0F130010A290AD21F
:1009A0004745E5DC07EB870100EB4107303FDFD42B
:1009B00045F01005ECE7E90601D46FF000476C281C
:1009C0000AD04C2814D0682815D06A280DD0742875
:1009D0001CD07A281AD01DE062690B98012190473B
:1009E0006C2802D045F0040514E045F002050DE046
:1009F00045F020050AE062690B98012190476828BC
:100A000002D045F0080505E045F4006562690B98E1
:100A100001219047C4E9015765283DD019DC5828C9
:100A20007AD00CDC452837D004DC252826D0412894
:100A30009ED131E046282FD0472899D12CE05B2861
:100A400077D0612828D063287CD0642823D15AE04D
:100A5000F7E06F2848D008DC66281DD067281BD037
:100A6000692821D06E2816D127E0702845D0732838
:100A700068D0752847D078280DD14DE0A1690D9830
:100A80008847252805463FF469AFE1690D988847F6
:100A90006D1C3FF46AAFD9E00D9923466A466FF0AA
:100AA0000100AFF30080C6E045F0400023464FF060
:100AB00000026060A80736D43EE0E8077FF447AF45
:100AC0002068011D21600068290501D506701BE71B
:100AD000290701D5068017E7A90703D5F117C0E953
:100AE000006111E706600FE745F0400023464FF034
:100AF00008026060A80716D41EE040F60E0125EA41
:100B00000100606016E045F0400023464FF00A0205
:100B10006060A80707D40FE045F040006060A807B8
:100B200008D5234610220D996FF00100AFF3008025
:100B300081E007E0102223460D996FF00100FFF7D6
:100B400007FC78E04FF0000963284F46C8464B4643
:100B5000CB4602D05B2807D039E02079C00601D40B
:100B60000120A060012732E06269D4F80CB00B9834
:100B7000012190475E2807D14FF00109494662697B
:100B8000D4F80CB00B989047216939B900210A4676
:100B900003AB43F82120491C0829FADBD8B32169AB
:100BA00049B308F1010862690B98012190475D285B
:100BB000F4D1B9F1000F09D0002003A951F8202089
:100BC000D24341F82020401C0828F7DB03AB206902
:100BD000002820794FEA40701ED05B462246CDF8AF
:100BE0000080CDE901970D9900286FF0010020DA0F
:100BF000AFF300801FE0C11703AA00EBD1614B11D6
:100C000021F01F0102EB8302411A13680120884082
:100C100003431360C7E719E00D99224600286FF0DF
:100C20000100009702DAAFF3008004E0AFF3008028
:100C300001E0AFF3008000280ADA401C06D10C98CE
:100C400020B14FF0FF300FB0BDE8F08F5046FAE70B
:100C5000E90701D10AF1010A064400200C9053E68D
:100C6000CCCCCC0C70B5C468A50713D0650211D4E8
:100C7000B2F5807F09D0B2F5007F06D0B2F5806F63
:100C800008D1012300F1240106E05D1E6FF07F46CC
:100C9000B54201D3012070BD0161C361416024F4FC
:100CA00070611143C160002070BD0000CA68431C20
:100CB0000FD00D4B1A420CD1D3070AD081F8250072
:100CC0004B680B6300238B6012F0C06F0B6003D086
:100CD00004E04FF0FF30704742F00072034B1A40BF
:100CE000034B1A43CA60704780200800BFFFDFFF34
:100CF000001048002DE9F0410C4607461646104604
:100D000000F06EF82078611C61280AD0722802D0A9
:100D100077283CD102E00125002405E002250424C7
:100D200002E0082448F2020511F8010B2B2806D036
:100D3000622809D011F8010C74280AD00BE045F0A4
:100D4000030544F00204EFE745F0040544F0010414
:100D5000EAE744F0100438462146FFF741FD411C04
:100D600015D00021316171604FF40071F560F161BF
:100D70007061200704D530460222002100F0EEF811
:100D8000306D40F0010030653046BDE8F081002054
:100D9000FBE72DE9F0410D460646104C206DC107DA
:100DA00004D0410804D020F00104F7E722460EE009
:100DB000542000F0A4F807000ED0206D47F0010188
:100DC0000843542120653846FFF768FB3A46294618
:100DD0003046BDE8F0418DE70020D6E7B4010020A1
:100DE0002DE9F04704464FF000094FF0FF37C56882
:100DF000D4E90486A80707D0204600F05FF9304602
:100E0000FFF7F8FC002802DA3846BDE8F08728052D
:100E100002D54046FFF73CFD4C212046FFF73EFB44
:100E2000206D20F0010020654846EEE710B504462D
:100E3000AFF300802046BDE81040FFF7D6B910B5EB
:100E400000F086F9BDE8104000F07CB9004870471A
:100E5000B00200207047000010B500F0B9F9001D85
:100E600010BD00BFE530000000487047B802002008
:100E7000704770477047704738B504460A460020EF
:100E80006946AFF30080002808BF38BD02460099CC
:100E9000204600F0A8F9012038BD012000F0F7B984
:100EA000F8B5AFF30080054600200C46102000BFC7
:100EB0000646A819A0420DD9324669460020AFF374
:100EC0000080070008BF00F0E2F90098A04218BFB8
:100ED0000546C419FFF7C8FF05600746F01D20F05E
:100EE00007004619284600F077F9B44208BFF8BD5C
:100EF000A21B31463868BDE8F84000F074B970B5FF
:100F00000646FFF7B1FF056806F10B0020F0070465
:100F1000B4429CBF002070BD2B466A68BAB110680D
:100F2000A04210D304F1080188423CBF50685860C9
:100F300007D35168101941601168091B016058609E
:100F40001460101D70BD13465268002AE7D1214677
:100F50002846FFF791FF0028DED170BD2DE9F04152
:100F6000044616460D464769007B80072ED038465A
:100F7000FFF755FC50BB3EB3012E02D0022E25D107
:100F800004E0204600F049F905441DE03846FFF72B
:100F900054FCE168002841F01001E16005DA2046C8
:100FA00000F058F80120BDE8F081C9030BD5626854
:100FB000E16A914200D81146A26911442269891A56
:100FC000814200DD08460544002D01DA0220EAE7EF
:100FD000E16A6068E268814206D29103E06203D56B
:100FE00022F4003141F01002A6690027AE4213DC62
:100FF000E16A814201D90B4600E0034603EB060C8F
:101000002369ACEB030CAC4506DD814201D98C466B
:1010100000E084469C4505D1A760276042F020008F
:10102000A5620DE0AD1BE669AE1B8142A66000D94A
:101030000846C01A281A20605819606022F0200063
:1010400003490840E060002084F84870ABE70000E6
:10105000BFCFD7FFC16821F4001141F08001C1600A
:1010600000218160016070472DE9F04781461446F8
:101070000E464FF0FF383248D5685769054209D00F
:101080003846A169FFF7D1FB002811DB2C48C0438B
:101090000540E5602B46324649463846FFF7B0FB2F
:1010A000A16920F00042B21A11440028A16103D0C6
:1010B0002046FFF7CFFF4046BDE8F08770B50446F5
:1010C0000569C06A6168884200D80846E16821F471
:1010D0002011E160C90312D5A84208D02246411B65
:1010E0002846FFF7C1FF10B14FF0FF3070BD002060
:1010F000E562C4E90150E06820F48030E06000203F
:1011000070BD10B50446C06820F02000E060A16A00
:10111000A06988420DD02046FFF7D0FFE06820F498
:10112000405040F01000E060A06AA0612069E062D9
:10113000606044F24001E0688843E06010BD000058
:1011400010000200002801D000F03CB870470000F9
:1011500010B5014602A000F081F8012010BD00008A
:1011600053494752545245443A2052656469726566
:1011700063743A2063616E2774206F70656E3A2045
:101180000000000010B5431C02E010F8011B71B113
:101190008107FAD14FF0013202C88C1A8C4314EA4D
:1011A000C211F9D0C01A0A0603D0C01E10BDC01A61
:1011B00010BD0A0401D0801E10BD0902FCD0401EE3
:1011C00010BD000001491820ABBEFEE7260002005A
:1011D00000487047D002002000210160C0E90110E2
:1011E000704710207047034640688C46002818BF9F
:1011F00088423CBF03464068F8D3186818448842C8
:1012000007D00CF1030020F00700001D411A521A0C
:101210000146081D0A60FFF73BBB10B50146C268D6
:10122000900703D0900607D5886A0AE000F03EF8E0
:1012300001210160881E10BD8B69486818440B6944
:10124000C01A91F848301BB191F84910401A10BDEE
:101250001103FCD50028FADD401E10BD70B505460F
:101260000C460A2000E06D1C00F018F835B1287813
:101270000028F8D102E0641C00F010F814B12078C6
:101280000028F8D1BDE870400A2000F007B810B57A
:1012900000F010F8BDE81040FFF754BF08B56946EC
:1012A0008DF800000320ABBE08BD00000048704769
:1012B000B002002010B5012805D0002103A0FFF7DF
:1012C000CDFF012010BD09A1F8E7000053494752A6
:1012D000544D454D3A204F7574206F662068656106
:1012E00070206D656D6F7279000000003A204865CE
:1012F0006170206D656D6F727920636F72727570A9
:10130000746564004FF0013C50F8042B51F8043B25
:101310009A4221D1A2EB0C03934313EACC1317D1C9
:1013200050F8042B51F8043B9A4215D1A2EB0C0360
:10133000934313EACC130BD150F8042B51F8043B20
:101340009A4209D1A2EB0C03934313EACC13DBD0EE
:101350004FF00000704700BFD01A01BAB1FA81F116
:1013600001F0180122FA01F0CB40C1F12001DBB2FB
:10137000C0B2C01A2CFA01F3D11A914311EAC31179
:10138000E6D17047014800F0C2B900002C000020EF
:1013900070B5044600688168C943C90717D18168E0
:1013A00021F00101816000F099FF05460AE000BFCD
:1013B00000F094FF401B022804D920688068C043D5
:1013C000C00706D020688068C043C007F0D0002066
:1013D00070BDA06A40F01000A062E06A40F0010019
:1013E000E062012070BD10B50146406A826A12F0C9
:1013F000500F05D0006A026BBDE810400846104748
:10140000816A41F40071816201688968C1F34241D7
:1014100007290CD1017B51B9816A21F48071816265
:10142000816AC90403D4816A41F00101816200F03C
:1014300069F910BD10B5406A816A41F040018162CE
:10144000C16A41F00401C16200F05EF910BD10B53F
:10145000406A00F058F910BDF8B500260446009621
:1014600000688168C943C9072DD0816841F0010136
:101470008160164816490068B0FBF1F000E0401E9C
:1014800000900028FBD100F029FF054616E000BFC0
:1014900000F024FF401B022810D920688068C04358
:1014A000C0070BD0A06A40F01000A062E06A40F0D4
:1014B0000100E06284F824600120F8BD20688068A3
:1014C000C043C007E4D10020F8BD00001C0000208C
:1014D00040420F00FEE70000014800F04DBC000054
:1014E0005C000020014800F047BC00002C010020F7
:1014F000014800F041BC00007001002030B590F8B8
:1015000040500124AC40C56B6C6004686360436864
:10151000102B036803D099600068C26030BD9A60E8
:101520000068C16030BD704772B6FEE7F8B50025AF
:101530000446009590F82400012808D0012084F882
:1015400024002046FFF724FF060002D053E00220CB
:10155000F8BDA06A20F4885040F00200A06202208A
:1015600000F052FF26490968B1FBF0F0400000E0AE
:10157000401E00900028FBD12046FFF76DFF206839
:10158000816841F00801816000F0A8FE074608E08C
:1015900000F0A4FEC01B0A2803D920688068000759
:1015A00015D4206880680007F2D42068816841F073
:1015B0000401816000F092FE074612E000F08EFE0A
:1015C000C01B0A280DD920688068400709D5A06A89
:1015D00020F0020040F01000A06284F824500120A6
:1015E000F8BD206880684007E8D4A06A20F00200B7
:1015F00040F00100A06284F824503046F8BD00009D
:101600001C00002070470000F8B50024009490F8FA
:1016100024202546012A12D0012280F824204A687D
:101620001F23072A0DD20668776B521E02EB820237
:1016300093409F430B6893401F43776319E0022058
:10164000F8BD06680D2A0AD2376BD21F02EB820260
:1016500093409F430B6893401F43376309E0F76A49
:101660000D3A02EB820293409F430B6893401F4365
:10167000F7620A68072306680A2A0AD3F7680A3A53
:1016800002EB420293409F438B6893401F43F760F5
:1016900008E0376902EB420293409F438B68934016
:1016A0001F4337610A68102A01D0112A20D1124B3A
:1016B00002689A4217D193681B0219D4936843F4C5
:1016C000000393600968102912D10C490C4A09687B
:1016D000B1FBF2F101EB8101490000E0491E0091EC
:1016E0000029FBD104E0816A41F0200181620124DC
:1016F00080F824502046F8BD002401401C00002042
:1017000040420F00704770477047806A704710B5BD
:10171000044600684168890626D50168890723D5F3
:10172000A16AC90603D4A16A41F40071A16281686B
:10173000C1F34241072910D1217B71B9416821F0E1
:1017400020014160A06A20F48070A062A06AC004F9
:1017500003D4A06A40F00100A0622046FFF7D2FF48
:1017600021686FF0120008602068416809062ED5D4
:10177000016849072BD5A16AC90603D4A16A41F4BF
:101780000051A1628168C1F30231072909D0416883
:10179000490515D48168C1F34241072910D1217B45
:1017A00071B9416821F080014160A06A20F4805045
:1017B000A062A06AC00503D4A06A40F00100A06244
:1017C0002046FFF71FFF21686FF00C0008602068BB
:1017D000416849060DD50068C0070AD0A06A40F4E8
:1017E0008030A062204600F095F821686FF001007B
:1017F000086010BD2DE9F04104004FF000057FD0D6
:10180000A06A002628B9E66284F82460204600F029
:1018100083F82046FFF7BCFDA16AC90600D420B1B9
:10182000A06A40F01000A0626AE0A16A21F4885129
:1018300041F00201A162334923688B42E16904D17E
:10184000B1F5402F01D14FF40021277B4FF4807C6C
:1018500041EA470261680A43A168614508D001294D
:1018600006D0002194F814E0BEF1010F02D00AE086
:101870006146F7E7C7B1A76A47F02007A762E76AA2
:1018800047F00107E7625F6827F469470F435F602D
:10189000236899681C4F394011439960A1686145DC
:1018A0000BD0012909D00CE0DFF860E0A7690EEB4E
:1018B00047370F4347F40061E5E7218A0D05A5F599
:1018C00080152168CB6A23F470032B43CB62216817
:1018D00089680F4B1940914208D1E662A16A21F054
:1018E000020141F00101A162BDE8F081A06A20F08F
:1018F000020040F01000A062E06A40F00100E062E7
:101900000120F1E7003C0140FDF7E1FF00E0FFFFAF
:10191000FE0E1FFF7047000070B586B0002605461A
:10192000009601960296039600681E49884237D1B8
:101930001D49886940F400708861886900F400706E
:101940000490886940F0100088618869694600F059
:10195000100004901020009003200190134800F024
:10196000B7FB144C1248C4E900068020C4E90260A9
:1019700040002061800060612020A0610002E061E1
:10198000204600F01DFB08B1FFF7CEFD2C620022BF
:1019900011461220656200F005FD122000F0F4FCF3
:1019A00006B070BD0024014000100240001001404C
:1019B000080002405C0000202DE9F84300270D4696
:1019C0000446009700F08AFC804620688168C905BB
:1019D00008D5A06A40F02000A06284F8247001209D
:1019E000BDE8F8834168C90503D4C06A10F4700FDC
:1019F0002AD0022000F008FD3B490968B1FBF0F64F
:101A00002068036939490B424FEA61014FEAA1128C
:101A10001FD1C3684FEA611C13EA0C0F19D1036987
:101A20000B4225D1C068104222D1142023E0681C4B
:101A30000AD02DB100F052FCA0EB0800A84203D957
:101A400020680068800725D5206800688007EED5EB
:101A50002DE003690B4202D1C168114206D0026930
:101A600023490A4206D1C068084203D1542002E04B
:101A7000292000E0FC204643009816E0681C11D0A5
:101A80002DB100F02BFCA0EB0800A8420AD9009869
:101A9000B04207D2A06A40F00400A06284F824702B
:101AA00003209DE70098401C0090B042E6D32168D7
:101AB0006FF012000860A06A40F40070A062206815
:101AC0008068C0F3424007280CD1207B50B9A06A3F
:101AD00020F48070A062A06AC00403D4A06A40F021
:101AE0000100A06200207BE71C0000202449922412
:101AF000499224002DE9F047894604463B49006895
:101B00003B4F0E1D9046884201D0B84207D1306845
:101B100010F4702F03D001252846BDE8F08794F813
:101B2000240001280CD0012084F824002046FFF76F
:101B300093FC05004FF0000004D084F82400EBE78C
:101B40000220EAE7A16A40F60162914341F4807104
:101B5000A1622168B94218D1326812F4702F14D0F2
:101B6000A16A41F48011A1623168490505D5A16AD5
:101B700021F4005141F48051A162A16AC9040AD53F
:101B8000E16A21F00601E16206E0A26A22F4801215
:101B9000A2624968E9E7E06284F82400216A1548F6
:101BA0008862216A1448C862216A1448086321685F
:101BB0006FF0020008602068816841F480718160E4
:101BC000216843464A464C31206A00F037FA2068C3
:101BD0008168C1F342410729816803D041F4801133
:101BE000816099E741F4A001FAE700000024014078
:101BF00000280140E71300084F14000835140008BE
:101C000010B590F821100022022905D0042181632B
:101C100080F82020012010BD01680B6823F00E031E
:101C20000B6001680B6823F001030B6090F84030F3
:101C3000C46B012101FA03F3636080F8211080F87E
:101C40002020104610BD00002DE9F05F90F8211013
:101C50000024022903D004218163012485E0016866
:101C60000A6822F00E020A6001680A6822F0010286
:101C70000A603F4E3E4FB215DFF8F4C0DFF8F09037
:101C8000DFF8ECA0DFF8E8B0DFF8E4E00168783FC7
:101C900013011502ACF1640CA9F15009AAF13C0A38
:101CA000ABF1280BAEF1140E4FF48018B14227D9D6
:101CB000B9420ED0614512D049451DD0514518D0CA
:101CC000594518D0714501D1424615E0294EB1421F
:101CD00001D1012210E0274E1436B14201D1102269
:101CE0000AE0244E2836B14206D0224A3C329142C4
:101CF00001D11A4600E02A461E49091F0A602BE05E
:101D0000B94213D0614517D0494522D051451DD065
:101D100059451DD0714501D142461AE0B14202D168
:101D20004FF0807215E0134EB14201D1012210E054
:101D3000104E1436B14201D110220AE00D4E283661
:101D4000B14206D00B4A3C32914201D11A4600E022
:101D50002A46074980394A60012180F82110002174
:101D600080F82010416B01B188472046BDE8F09F04
:101D700080000240080402402DE9F05FC16B0A6850
:101D800001680B68046C4FF0040808FA04F8844DED
:101D9000844E854FDFF814C2DFF81492DFF814A2E6
:101DA000DFF814B2DFF814E218EA020F65D05FEA38
:101DB000437862D50A68920603D40A6822F00402C6
:101DC0000A60DFF8F0814FF48062016808F11408BE
:101DD00013011402414524D9A9420DD0B1420FD0BC
:101DE000B9421AD0614515D0494515D0514501D1A8
:101DF000120312E0594501D104220EE0714501D1D0
:101E000040220AE06D4D1435A94206D06B4A2832B3
:101E1000914201D11A4600E022466749091F0A6033
:101E200029E0A94213D0B14215D0B94220D0614572
:101E30001BD049451BD0514502D14FF4800217E019
:101E4000414502D14FF0806212E0594501D1042290
:101E50000EE0714501D140220AE0584D1435A942E7
:101E600006D0564A2832914201D11A4600E0224655
:101E70004B4908394A60C16A71E04FF0020808FA1C
:101E800004F818EA020F70D05FEA83786DD50A680B
:101E9000920606D40A6822F00A020A60012180F83C
:101EA0002110DFF810814FF40072016808F1140866
:101EB00013011402414524D9A9420DD0B1420FD0DB
:101EC000B9421AD0614515D0494515D0514501D1C7
:101ED000120312E0594501D102220EE0714501D1F1
:101EE00020220AE0354D1435A94206D0334A283263
:101EF000914201D11A4600E022462F49091F0A608B
:101F000029E0A94213D0B14215D0B94220D0614591
:101F10001BD049451BD0514502D14FF4001217E0A8
:101F2000414502D14FF0007212E0594501D1022221
:101F30000EE0714501D120220AE0204D1435A9425E
:101F400006D01E4A2832914201D11A4600E02246AC
:101F5000134908394A60002180F82010816A00295D
:101F60001CD0BDE8F05F0847FFE70825A5401542F3
:101F700014D01A0712D50A6822F00E020A6090F8EF
:101F80004020C36B012101FA02F25A60816380F89C
:101F90002110002180F82010016BE0E7BDE8F09FE0
:101FA000080002401C000240300002404400024091
:101FB000580002406C000240080402401C04024029
:101FC00030B560B11A4B026814219A4209D2194BFC
:101FD0001344B3FBF1F18900016417490AE00120C1
:101FE00030BD134B5B421344B3FBF1F18900016434
:101FF0000F490839C163022180F82110136843F6A4
:10200000F0718B43F0E901142143D0E902452C43E0
:1020100021430469214344692143846921431943CD
:10202000116000214163012242770177084630BDEB
:1020300008040240F8FFFDBF0000024070B50446EE
:1020400090F82000002501280CD0012084F8200001
:1020500094F821600020012E06D084F8200002258B
:10206000284670BD022070BD022684F82160A0635E
:102070002068066826F0010606602046FFF73EFA53
:10208000E06A00282068016802D041F00E0106E0F5
:1020900021F0040101602068016841F00A0101603B
:1020A0002068016841F001010160D9E770B504467C
:1020B00000F014F90546601C02D00448007804447E
:1020C00000F00CF9401BA042FAD370BD10000020B4
:1020D0002DE9F84FDFF8C891002409F1040A0AF14C
:1020E000040B23460F270BF1040ED1E00125A54078
:1020F00006EA0502AA4276D1DFF8A8C14E68A6EB2F
:102100000C0866452BD00DDC032E34D005DC36B32D
:10211000012E19D0022E2FD11BE0112E16D0122E17
:102120002AD119E0B8F5881F19D006DCB8F5803F30
:1021300015D0B8F5801F1FD111E0B8F5001F0ED0E3
:10214000B8F5041F18D10AE0CB6815E0CB681B1D59
:1021500012E0CB6808330FE0CB680C330CE08B68DF
:102160002BB1012B4FF0080303D0456104E0042399
:1021700002E0056100E00023FF2A01D8064601E0E5
:1021800000F104064FEA840501D9A5F12005D6F82F
:10219000008007FA05FC28EA0C0803FA05F548EA6E
:1021A0000508C6F800804D68ED0070D53E4DAE695B
:1021B00046F00106AE61AD6924F0030605F00105A5
:1021C00000953A4D06EB050CDCF80850A607360FD3
:1021D00007FA06F825EA0805DFF8D480404503D160
:1021E0004FF0000825E052E0DFF8C880404502D1FA
:1021F0004FF001081DE0DFF8C080404502D14FF0EC
:10220000020816E0DFF8B480404502D14FF0030821
:102210000FE0DFF8AC80404502D14FF0040808E041
:10222000DFF8A080404502D14FF0050801E04FF0F3
:10223000060808FA06F848EA0508CCF808804D6850
:10224000D9F80060ED034D4601D5164300E09643F2
:102250002E604D68DAF80060AD03554601D516438F
:1022600000E096432E604D68DBF80060ED025D46AD
:1022700001D5164300E096432E604D68DEF80060FD
:10228000AD02754601D5164300E096432E60641CEE
:102290000A681646E2407FF429AFBDE8F88F0000D7
:1022A0000004014000001110001002400000014035
:1022B00000080140000C01400010014000140140E2
:1022C00000180140001C01408068084000D0012037
:1022D00070470AB1016170470904FBE70148806853
:1022E0007047000010000020024881680278114405
:1022F0008160704710000020074810B5016841F068
:1023000010010160032000F06DF80F2000F006F8C6
:1023100000F024F8002010BD0020024070B50D4DE3
:1023200004464FF47A712878B1FBF0F00A49096845
:10233000B1FBF0F000F0C4FB48B9102C07D200222A
:102340002146501E00F02EF800206C6070BD012068
:1023500070BD0000100000201C000020094808B5D6
:10236000816941F001018161816901F00101009100
:10237000C16941F08051C161C06900F08050009096
:1023800008BD000000100240002809DB00F01F0219
:10239000012191404009800000F1E020C0F80011C7
:1023A00070470000F0B40E4B1B680C46C3F30223C9
:1023B000C3F10705042D00D90425191D072901D2F1
:1023C000002300E0DB1E012606FA05F1491E21402C
:1023D00099409E40761E16403143F0BC01F05DBC32
:1023E0000CED00E0064900F0070208684FF6FF0315
:1023F000184040EA0220034A10430860704700007A
:102400000CED00E00000FA0510B52CA401461DCC2F
:1024100086B08DE81D002DA02D4C00680490002092
:1024200004292FD00BDC01292FD0022928D100F05C
:1024300071F96168C1F38131491C49001EE0082926
:1024400020D010291CD161682268D20118D5C1F3AF
:102450008342C9031DF8020009D5616804AAC1F3CB
:102460004041515C1B4AB2FBF1F1484301E01A497B
:1024700048436168490203D440000321B0FBF1F0F6
:1024800006B010BD00F056F9FAE7226AC2F3012146
:10249000012903D1920701D5C803F1E7022905D12B
:1024A000626A920702D549F64040E9E70329E7D17D
:1024B00021688903E4D54FF22440E1E702030405D3
:1024C000060708090A0B0C0D0E0F10100102000080
:1024D0000010024000127A0000093D002DE9F84387
:1024E00005460078354CC00754D0E0690026C0008E
:1024F00008D4E06940F08050E061E069012600F016
:10250000805000902E480168C90512D401688046A9
:1025100041F480710160FFF7E1FE074605E000BF6E
:10252000FFF7DCFEC01B642823D8D8F80000C005E4
:10253000F6D5206A10F4407021D0A98801F44071CA
:1025400081421CD0206A1F49012220F440700A6099
:1025500000220A602062C00711D0FFF7BFFE0746C5
:1025600041F2883808E000BFFFF7B8FEC11B4145C3
:1025700002D90320BDE8F883206A8007F4D5206AD9
:10258000696820F44070084320621EB1E06920F0C1
:102590008050E0612878800705D56068A96820F43C
:1025A0004040084360602878C00605D560686969C6
:1025B00020F48000084360600020DBE70010024048
:1025C00000700040400442422DE9F0470F460500EC
:1025D00061D0434E306800F00700B84209D230683D
:1025E00020F0070038433060306800F00700B84240
:1025F00051D128683B4C810712D5400703D560684C
:1026000040F4E06060602878000703D5606840F41B
:10261000605060606068A96820F0F0000843606066
:102620002878C00728D06868012810D021680228BF
:1026300010D0890700292EDA616821F003010143D7
:102640006160FFF74BFE804641F288390DE021685A
:102650008903EFE78901EDE7FFF740FEA0EB0801F2
:10266000494502D90320BDE8F0876068696800F039
:102670000C00B0EB810FEFD1306800F00700B842DA
:102680000BD9306820F0070038433060306800F024
:102690000700B84201D00120E5E72878400705D5BA
:1026A0006068E96820F4E06008436060287800070B
:1026B00006D56068296920F4605040EAC100606076
:1026C00000F038F86168084AC1F30311515CC84052
:1026D0000649086006480068FFF720FE0020C2E7B0
:1026E0000020024000100240DC4700081C000020CF
:1026F000140000200448054900684968044AC1F3F1
:102700000221515CC84070471C00002000100240AC
:10271000EC4700080448054900684968044AC1F3C9
:10272000C221515CC84070471C00002000100240CC
:10273000EC47000812A185B00FC98DE80F0014A066
:10274000144A006804905168134801F00C03042BEC
:1027500010D0082B0ED1C1F38343C9031DF8030029
:102760000AD5516804AAC1F34041515C0A4A50435A
:10277000B0FBF1F005B0704708494843FAE70000A4
:1027800002030405060708090A0B0C0D0E0F1010B2
:10279000010200000010024000127A0000093D0012
:1027A0002DE9F84F040070D02078C04DC00749D003
:1027B0006868C0F38100012807D06868C0F3810011
:1027C000022809D16868C00306D52868800339D576
:1027D00060680028E7D035E06068B0F5803F0BD036
:1027E00010B1B0F5A02F11D0286820F480302860F7
:1027F000286820F4802002E0286840F480302860B7
:10280000606890B1FFF76AFD06460AE0286840F468
:1028100080202860F0E700BFFFF760FD801B642880
:1028200073D828688003F7D50CE0FFF757FD0646FC
:1028300005E000BFFFF752FD801B6428F0D8286830
:102840008003F7D420789A4E80074FF001094FF0AB
:10285000000839D5686810F00C0F07D06868C0F31D
:102860008100022809D16868C00306D4286880075F
:1028700014D52069012808D110E02069B0B1C6F84C
:102880000090FFF72BFD074605E00AE1FFF726FD64
:10289000C01B0228C4D828688007F7D5286861695A
:1028A00020F0F80040EAC10028600DE0C6F8008082
:1028B000FFF714FD074604E0FFF710FDC01B0228D8
:1028C00023D828688007F7D4207800072CD57948CA
:1028D000A169D9B1C0F80090FFF700FD074604E0F8
:1028E000FFF7FCFCC01B02280FD8686A8007F7D5E9
:1028F00071484FF4FA510068B0FBF1F0009000BF4E
:102900000098411E0091FAD20EE080E0C0F80080ED
:10291000FFF7E4FC074604E0FFF7E0FCC01B0228D9
:1029200075D8686A8007F7D42078400760D5E869D1
:102930000027C00008D4E86940F08050E861E869E9
:10294000012700F0805000905C480168C90513D44D
:102950000168834641F480710160FFF7BFFC824645
:1029600006E000BFFFF7BAFCA0EB0A0064284ED8CF
:10297000DBF80000C005F5D5E06801280AD008B1F1
:10298000052813D0286A20F001002862286A20F068
:10299000040002E0286A40F001002862E06841F289
:1029A000883B98B1FFF79AFC82460BE0286A40F01A
:1029B00004002862EEE700BFFFF790FCA0EB0A01DD
:1029C00059455AD8286A8007F6D50CE0FFF786FCEF
:1029D000824605E0FFF782FCA0EB0A0159454CD87E
:1029E000286A8007F6D41FB1E86920F08050E861BA
:1029F000E06988B36968C1F38101022944D00228E3
:102A0000C6F8608004D0FFF769FC044638E034E083
:102A1000FFF764FC074604E0FFF760FCC01B0228D8
:102A20002BD828688001F7D4206AB0F5803F05D103
:102A30006868A16820F4003008436860D4E90801A0
:102A40000843696821F4741108436860C6F860900F
:102A5000FFF744FC044606E025E000BFFFF73EFC1C
:102A6000001B022809D828688001F7D51BE000BFA9
:102A7000FFF734FC001B022802D90320BDE8F88FC1
:102A800028688001F4D40EE00128F7D06868226A33
:102A900000F48031914204D1616A00F470108842E0
:102AA00001D00120EAE70020E8E700000010024022
:102AB00000004242800442421C000020007000409E
:102AC00010B5401EB0F1807F01D3012010BD4FF042
:102AD000E02460610F21601701F0DFF80020A061A1
:102AE00007202061002010BD7047704770B590F836
:102AF0003C20012A2CD0012480F83C40022280F89E
:102B00003D2003685A689D6822F070060A683243C7
:102B10005A60104B02689A420ED00F4B9A420BD06B
:102B2000B2F1804F08D00D4B9A4205D00C4B9A421F
:102B300002D00C4B9A4204D1496825F08003194316
:102B4000916080F83D40002180F83C10084670BD3F
:102B5000022070BD002C0140003401400004004000
:102B600000080040000C004010B5040003D094F8A9
:102B70003D0010B107E0012010BD002084F83C00AA
:102B8000204600F01FF8022084F83D00211D206837
:102B900000F028FE012084F8460084F83E0084F806
:102BA0003F0084F8400084F8410084F8420084F833
:102BB000430084F8440084F8450084F83D00002078
:102BC00010BD000008B50068B0F1804F12D10A486E
:102BD000C16941F00101C161C069002200F001003A
:102BE000009011461C20FFF7DDFBBDE808401C20CB
:102BF000FFF7CABB08BD00000010024070B50446D4
:102C000090F83C00012817D0012584F83C500220A0
:102C100084F83D002068826822F0770222F47F4227
:102C200082600868502830D00DDC20284DD005DCAB
:102C300098B310283BD148E0022070BD302844D022
:102C4000402834D139E0602828D0702806D0B0F56B
:102C5000805F2CD0B0F5005F29D10AE0CB68D1E9C4
:102C60000121206800F011FE2068816841F07701A1
:102C700009E0CB68D1E90121206800F006FE206858
:102C8000816841F48041816011E0CA684968206828
:102C900000F0D0FE5021206807E016E0CA684968BD
:102CA000206800F0D8FE6021206800F0F8FD84F86C
:102CB0003D50002084F83C0070BDCA684968206817
:102CC00000F0B8FE40212068EFE722680146104678
:102CD000EBE7704770B50446006801694FF00005E6
:102CE000C943890715D4C168C943890711D4E91EAE
:102CF000016101202077206880698007204602D08A
:102D0000FFF7E7FF04E000F0BDF8204600F04CF9C3
:102D1000257720680169C943490717D4C168C943A9
:102D2000490713D46FF00401016102202077206865
:102D3000806910F4407F204602D0FFF7CAFF04E00C
:102D400000F0A0F8204600F02FF9257720680169EF
:102D5000C943090716D4C168C943090712D46FF0E3
:102D600008010161042020772068C069800720469F
:102D700002D0FFF7AEFF04E000F084F8204600F038
:102D800013F9257720680169C943C90617D4C168BA
:102D9000C943C90613D46FF01001016108202077E0
:102DA0002068C06910F4407F204602D0FFF791FFF1
:102DB00004E000F067F8204600F0F6F82577206878
:102DC0000169C943C90708D1C168C943C90704D10A
:102DD000891E0161204600F043F920680169C9435A
:102DE000090609D4C168C943090605D46FF08001FA
:102DF00001612046FFF778FE20680169C943490652
:102E000009D4C168C943490605D46FF04001016186
:102E1000204600F026F920680169C94389060BD4D1
:102E2000C168C943890607D46FF0200101612046BB
:102E3000BDE87040FFF759BE70BD000000B585B019
:102E4000002100910191029103910068B0F1804F3F
:102E500011D10A48816941F00401816180696946A4
:102E600000F00400049004200090022001900390E0
:102E70000348FFF72DF905B000BD00000010024027
:102E800000080140704770B5044690F83C000D46BC
:102E900001280AD0012084F83C0042B1042A18D04D
:102EA000082A2AD00C2A4DD139E0022070BD2068B2
:102EB00000F0FEFC2068816941F008018161206812
:102EC000816921F004018161206881692A691143C7
:102ED00011E0206800F01CFD2068816941F4006168
:102EE00081612068816921F4806181612068816944
:102EF0002A6941EA0221816124E0206800F03EFD58
:102F00002068C16941F00801C1612068C16921F0F0
:102F10000401C1612068C1692A69114311E0206878
:102F200000F060FD2068C16941F40061C161206862
:102F3000C16921F48061C1612068C1692A6941EADF
:102F40000221C161002084F83C0070BD10B504006E
:102F500003D094F83D0010B107E0012010BD00201F
:102F600084F83C00204600F01EF8022084F83D0062
:102F7000211D206800F036FC012084F8460084F80A
:102F80003E0084F83F0084F8400084F8410084F853
:102F9000420084F8430084F8440084F8450084F833
:102FA0003D00002010BD70477047000010B504467A
:102FB000022249B104290ED0082913D094F8410007
:102FC000012816D0012010BD94F83E000128F9D147
:102FD00084F83E200FE094F83F000128F2D184F8F5
:102FE0003F2008E094F840000128EBD184F840200D
:102FF00001E084F841200122206800F039FC1349E7
:103000002068134A884201D0904203D1436C43F4B4
:1030100000434364206888420DD090420BD0B0F149
:10302000804F08D00B49884205D00B49884202D016
:103030000A49884204D1816801F00701062903D0BA
:10304000016841F001010160002010BD002C014029
:10305000003401400004004000080040000C004023
:103060007047704770477047F8B5026804461068AB
:10307000D168536910F00F0F4FF0000553D003F0E3
:10308000010601F4907737435FD0C20705D0CA0527
:1030900003D5226C42F001022264420705D5DA070B
:1030A00003D0226C42F002022264820705D5DA07BF
:1030B00003D0226C42F004022264020707D501F01B
:1030C0002002324303D0226C42F008022264226CB8
:1030D000002A34D0800604D5880602D5204600F0A8
:1030E000ECFC20684069216CC0F38010090700D413
:1030F00030B3204600F0C9FC2068416949061BD561
:10310000416921F040014161A06BA8B15849416378
:10311000A06BFEF799FD002811D0A06B416B01B0A8
:10312000BDE8F040084783060FD58B060DD5204635
:10313000BDE8F84000F0C1BC2046FFF794FFF8BDA1
:103140002046FFF790FF2564F8BD266B2023012E53
:1031500052D1C60650D5CE064ED5106850680090A4
:10316000506940062AD5A16B086840680004000C2D
:10317000EAD0A68D8642E7D9E0858869202818D054
:10318000D06820F48070D0602068416921F001018E
:1031900041612068416921F04001416184F83E307D
:1031A00025632068C16821F01001C160A06BFEF7A3
:1031B00027FDA08DE18D401A81B219E0A08DE18D2F
:1031C000401A81B2E08D0028BED00029BCD0D06862
:1031D00020F49070D0602068426922F001024261C0
:1031E00084F83E3025632068C26822F01002C26075
:1031F0002046FFF737FFF8BD05062BD50D0629D56C
:1032000094F83D002128F6D1A068B0F5805F01D187
:103210002069B0B1206A411C2162216800784860B1
:10322000E08C401E0004000CE084E4D12068C168FA
:1032300021F08001C1602068C16841F04001C16097
:10324000F8BD206A0088C0F308005060206A801C26
:103250002062E5E74006F3D54806F1D5D16820465F
:1032600021F04001D16084F83D3000F060F9F8BDF4
:103270007B3A000870B5040004D094F83D000025A6
:1032800010B106E0012070BD84F83C50204600F0EB
:1032900023F8242084F83D002068C16821F40051FF
:1032A000C160204600F064FC2068016921F490416F
:1032B00001612068416921F02A0141612068C168EB
:1032C00041F40051C1602564202084F83D0084F859
:1032D0003E00002070BD00002DE9F04186B00024C2
:1032E0000646009401940294039400682D49884294
:1032F00055D12D48816941F480418161816901F492
:1033000080410491816941F0040181618069274D08
:1033100000F0040004904FF400700090022001902F
:103320000320039069462846FEF7D2FE2815CDE912
:103330000004694628460294FEF7CAFE1D4D1C484B
:10334000802701C5102091C54FF0200845F810498D
:103350001848C5E90548EC61FEF732FE08B1FEF7F2
:10336000E3F875636E62134D114844351430C5E9B6
:103370000004C5E902472C61C5E905482846EC610F
:10338000FEF71EFE08B1FEF7CFF8B5630022114626
:1033900025206E62FFF706F82520FEF7F5FF06B040
:1033A000BDE8F081003801400010024000080140F3
:1033B000440002402C0100202DE9F84F044690F80B
:1033C0003E009A4616460D46202853D1FDB1F6B16F
:1033D00094F83C0001284DD0012084F83C000027DF
:1033E0002764222084F83E002763FEF777FFA68536
:1033F0008146E685A0684FF48058404501D1206998
:1034000040B12E465FF0000584F83C7027E00120B3
:10341000BDE8F88F0026F7E74B4600222021204622
:10342000CDF800A000F000FC08B10320F0E726B1C1
:10343000A06840451BD038B108E020684068C0F360
:10344000080025F8020B07E0206980B12068406879
:1034500000F07F0006F8010BE08D401EE085E08D56
:103460000028D9D1202084F83E000020D0E7206831
:103470004068EFE70220CBE7704700002DE9F843F2
:10348000044690F83D001F4616460D4620284CD1B4
:10349000C5B1BEB194F83C00012846D0012084F8A3
:1034A0003C004FF00008C4F84080212084F83D0023
:1034B000FEF714FFA6848146E684A068B0F5805F1D
:1034C00003D004E00120BDE8F883206928B12E462E
:1034D0005FF0000584F83C800EE00026FAE78021CA
:1034E000204600F0A1FBA0B9AEB116F8010B21688F
:1034F0004860E08C401EE084E08C4B464FF00002B8
:1035000000970028EBD14FF04001204600F08CFBE3
:1035100030B10320D7E735F8020BC0F30800E6E727
:10352000202084F83D000020CDE70220CBE7704743
:10353000FEE700003EB500211148009101910F4ABD
:103540000291026001248160047301754FF46022CE
:103550000461C2614160FEF74DF908B1FDF7E4FF77
:103560000E20CDE900040520029069460448FEF7CC
:103570004BF8002801D0FDF7D7FF3EBD00240140E5
:103580002C000020114808B5416941F0010141615A
:103590004069002200F00100009011460B20FEF768
:1035A00001FF0B20FEF7F0FE002211460E20FEF771
:1035B000F9FE0E20FEF7E8FE002211460F20FEF76E
:1035C000F1FEBDE808400F20FEF7DEBE001002400D
:1035D0002DE9F04186B0002425480094019402941E
:1035E0000394816941F010018161816901F010014A
:1035F0000491816941F004018161816901F0040154
:103600000491816941F008018161816901F008013B
:103610000491816941F0200181618069DFF8548063
:1036200000F020004FF44047049000223946404605
:10363000FEF74FFE4FF40055CDE9005401266946D0
:103640000D480296FEF744FD11200097CDE90104D4
:103650000220039069464046FEF73AFDCDE900544A
:10366000694606480296FEF733FD06B0BDE8F081D4
:1036700000100240000C0140001001400014014005
:1036800010B58EB000240794089409940A940B9402
:103690001C2168460C94FCF701FF1E484FF0804146
:1036A00001604721C0E9011440F2F311C0E903149D
:1036B0008461FFF759FA08B1FDF736FF4FF48050E7
:1036C000079007A91348FFF799FA08B1FDF72CFFF7
:1036D0001048FFF73BFC08B1FDF726FF0B940BA940
:1036E0000C480C94FFF702FA08B1FDF71DFF6020AB
:1036F000CDE900040220029008226946049405489E
:10370000FFF7C1FB08B1FDF70FFF0248FFF796FB7B
:103710000EB010BDA00000200C4810B50A49016091
:103720004FF4E1314160002181600C22C160C0E9A9
:1037300004128161C161FFF79DFD002803D0BDE83F
:103740001040FDF7F1BE10BD00380140E800002038
:10375000FEE7FEE770477047FEF7C6BD30B595B08F
:1037600028216846FCF79AFE14210AA8FCF796FE69
:1037700018210FA8FCF792FE01210804CDE90010E2
:103780000025029502240491CDE907404FF4E01092
:1037900009906846FFF704F808B172B6FEE70AA977
:1037A0000F2081E831004FF48060CDE90D05022142
:1037B0000AA8FEF709FF08B172B6FEE74FF44040D1
:1037C00011900F940FA8FEF789FE002801D072B661
:1037D000FEE715B030BD70470148FFF77BBA000027
:1037E000A0000020F0B502681C4B1D4D1D4E1E4F61
:1037F0001E4C4FF0804C984209D0A04207D0604543
:1038000005D0A84203D0B04201D0B84204D122F082
:10381000700E4A6842EA0E02984209D0A04207D0D0
:10382000604505D0A84203D0B04201D0B84203D1D0
:1038300022F44075CA682A434D6922F080022A4367
:1038400002608A68C2620A688262984201D0A0421D
:1038500001D10969016301214161F0BD002C0140E2
:103860000004004000080040000C0040003401400B
:1038700010B501F01F030121046A99408C430462D2
:10388000016A9A401143016210BD10B5846842EA92
:10389000032224F47F440A432243826010BD8268DD
:1038A00022F070020A4342F0070181607047000075
:1038B000F0B5026A22F001020262036A426884697A
:1038C000124E24F073050C682C4323F002058B681C
:1038D0002B430D4DA84201D0B04205D123F008077B
:1038E000CB683B4323F00403A84201D0B04205D18A
:1038F0004D6922F4407215438A692A43426084610B
:10390000496841630362F0BD002C0140003401406E
:10391000F0B5026A22F010020262026A436884690A
:103920000D6824F4E64444EA05248D6822F0200260
:1039300042EA05120F4D104EA84201D0B04206D106
:10394000CF6822F0800242EA071222F04002A84229
:1039500001D0B04207D14D6923F4406343EA8503A7
:103960008D6943EA8503436084614968816302622B
:10397000F0BD0000002C014000340140F0B5026AA7
:1039800022F480720262026A4368C46922F40072FF
:1039900024F073050C68124E2C438D6842EA052210
:1039A0000E4DA84201D0B04206D1CF6822F4006289
:1039B00042EA072222F48062A84201D0B04207D135
:1039C0004D6923F4405343EA05138D6943EA051317
:1039D0004360C4614968C1630262F0BD002C0140CC
:1039E0000034014030B5026A22F480520262046A57
:1039F0004268C3690D6823F4E64343EA05238D68F2
:103A000024F4005444EA0534084DA84202D0084D7D
:103A1000A84204D14D6922F4804242EA85124260F4
:103A2000C36149680164046230BD0000002C01409C
:103A30000034014010B5036A046A24F001040462F2
:103A4000846924F0F00444EA021423F00A020A43D1
:103A50008461026210BD10B5036A23F01003036293
:103A60008369046A23F4704343EA023224F0A0031A
:103A700043EA01118261016210BD10B5406A002164
:103A8000C185C184FFF7EFFA10BD0168CA6822F44E
:103A90009072CA6001684A6922F001024A61016BB2
:103AA000012904D10168CA6822F01002CA602021ED
:103AB00080F83E1000210163704708B590F83E1071
:103AC000222901D0022008BD82684FF480539A4217
:103AD00001D1016921B1816A9A421BD04AB10AE041
:103AE0000268816A5268C2F308020A80816A891CEE
:103AF00008E0026972B10268526802F07F020A703F
:103B0000816A491C8162C18D491E0904090CC18565
:103B100003D019E002685268F1E70168CA6822F030
:103B20002002CA600168CA6822F48072CA60016813
:103B30004A6922F001024A61202180F83E10016B9F
:103B4000012903D0FFF798FC002008BD0021016384
:103B50000168CA6822F01002CA6001680A68D206C9
:103B600002D50A6849680091818DFFF77BFAEBE77F
:103B700070B5044600680169E26821F440511143C0
:103B800001612169A0680843616908432168CA6826
:103B900041F20C639A430243CA6020684169A269FA
:103BA00021F44071114341611E492068884202D1CD
:103BB000FEF7B0FD01E0FEF79DFD00EBC00101EB5B
:103BC0000012606864218000B2FBF0F3B3FBF1F3F4
:103BD0006FF018067343B2FBF0F5B2FBF0F605EB9D
:103BE0008305322303EB0515B5FBF1F5B6FBF1F6C2
:103BF00005F0F00505EB0615B2FBF0F6B2FBF0F0B0
:103C0000B0FBF1F06FF01802504306EB800003EBBD
:103C10000010B0FBF1F0216800F00F00284488602C
:103C200070BD0000003801402DE9F041984617466C
:103C30000E460446069D1DE0681C1BD02DB1FEF704
:103C40004DFBA0EB0800A84214D92068C16821F4FC
:103C5000D071C1602068416921F0010141612020DB
:103C600084F83D0084F83E00002084F83C000320E6
:103C7000BDE8F0812068006836EA000004D000202A
:103C8000B842D9D00020F3E70120F9E70148FFF757
:103C9000EBB90000E8000020FEE70907090E002844
:103CA00004DB00F1E02080F80014704700F00F0002
:103CB00000F1E02080F8141D7047000008B50020D6
:103CC0008DF800004FF6FF73012269460248FFF7A6
:103CD00073FB9DF8000008BDE800002013B54FF607
:103CE000FF73012269460248FFF7C8FB00981CBD1C
:103CF000E8000020C820FEF7D9F9FEF7FDFAFFF72B
:103D00002DFDFFF765FCFFF73DFCFFF713FCFFF708
:103D1000B7FCFFF701FD0122624F550329463846E3
:103D2000FEF7D7FA604E012229463046FEF7D1FA57
:103D30005E48FDF7FBFB08215D48FFF737F9DFF828
:103D400074A10122910354465046FEF7C2FA0022A4
:103D5000A9002046FEF7BDFA574C58482188FCF7C9
:103D60006BFA4FF0640BA846B146534954A00C318E
:103D7000C4F80CB0FCF7DCFAE068642804D081B227
:103D8000218050A0FCF758FA454641463846FEF7D8
:103D90009BFA70B90A20FEF789F929463846FEF7E2
:103DA00093FA30B92088401C81B2218045A0FCF7ED
:103DB00043FA29464E464846FEF786FA70B90A206D
:103DC000FEF774F929463046FEF77EFA30B92088AE
:103DD000401E81B221803BA0FCF72EFAC820FEF7DE
:103DE00065F935490422091D3048FDF783FE32216B
:103DF0002E48FDF7E1FD2D48FDF787FC8005B4D581
:103E00002A48FDF782FC80B2A08000F0E0FA3C4A2C
:103E10003C4B00F0EFFA00F0ADFA80B2E08000F029
:103E2000D6FA0E4605464FF06632374B00F0E0FBFF
:103E30000022364B00F046F902460B462846314632
:103E400000F040F900F096FA80B2208100F0BFFA4D
:103E50002F4A304B00F0CEFA00F08CFA81B261802C
:103E60002DA0FCF7E9F961882288881A00F5FA701C
:103E700080B26081914209D9401C0D4980B26081B5
:103E80000968C8633220FEF711F96EE70122910339
:103E900055465046FEF71DFA0122D1032846FEF78B
:103EA00018FA62E700100140001401402C000020C5
:103EB000A0000020000C0140000000200048000885
:103EC0002564000054686520707265736574207401
:103ED000656D7065726174757265206861732062CA
:103EE00065656E2073657420746F20256420646599
:103EF00067726565732043656C736975730A0000AA
:103F0000B4D934E70C684A3F66660A400088C3406B
:103F10009A9999999999A93F43757272656E74201F
:103F2000616D6269656E742074656D70657261742F
:103F3000757265202564206465677265657320432A
:103F4000656C736975730A0010B500290AD008788A
:103F5000002807D005487844FDF7D4F9002801D09F
:103F6000002010BD0248784410BD00003609000052
:103F70002E09000010B591EA030F48BF83F00043FB
:103F800000F14A83841A71EB030C05D2121943EB3A
:103F90000C03001B61EB0C01DFF824E14FEA115424
:103FA000A4EB135C1EEA430F18BF9EEA445F73D074
:103FB00023EA0E03DCF1200E21EA045143F48013BE
:103FC00032D322FA0CFE10EB0E0023FA0CFE41EB6A
:103FD0000E01CCF1200E03FA0EFE10EB0E0051F193
:103FE0000001B1F5801FCCF1200E32D201EB04515B
:103FF00012FA0EF2BDE8104058BF7047401C38BF9F
:104000005FEA420218BF7047002814BF20F0010089
:1040100041F100014FEA410313F5001F38BF70471B
:10402000A1F1C04100F0DEBA012A43EB0302ACF17A
:10403000200CDCF11F0E32BF4FF0000E23FA0CF300
:1040400010EB030041EB0451B4EB115FD0D0A1EBB6
:10405000045101F5801149085FEA300001EB045179
:104060000ED350F1000038BF12FA0EFE08D1BDE8A1
:104070001040C9E7401C38BF5FEA4202CAD1C3E71B
:10408000BDE810404FEA410313F5001F38BF7047E9
:10409000A1F1C04100F0A6BA9EEA445F08D011EA3F
:1040A0005E0FBDE8104004BF01F0004100207047E2
:1040B000BDE8104070B500F047FA00BF64FBBE3E9B
:1040C0000000E0FF2DE9C04130B4DFF8A0C23CEAB7
:1040D000111418BF3CEA131400F0EC8081EA0305C8
:1040E0001CEA111444EAD57418BF1CEA131500F039
:1040F000C780A4EB05044FF0004545EAC12145EA1D
:10410000C32341EA505143EA525304F17F74994268
:1041100004F500344FEAC0204FEAC22208BF9042A3
:1041200000F09C804FEA13650FF24016765D4FEA6F
:10413000134506FB05F7C7F1807706FB07F74FEA43
:10414000D737A7FB03687642C8F58038A7FB06CEB1
:1041500038BFA8F1010807FB08E64FF0000EA6FBE8
:10416000028CE6FB03CEDCF1000CCEF1004E38BF32
:10417000AEF1010EA6FB0C584FF000074FF0000502
:10418000E6FB0E87A1FB08C6A0FB07CE16EB0E06CA
:1041900045F10005E1FB076515F1E04E7EBFA4F592
:1041A00080345FEA46066D4116F1800745F100054F
:1041B0004FEA17274FEA066647EA0567A6F1DE468B
:1041C000B6F1805F4FEA15251FD9384624F0010C5F
:1041D00005EBC471BCF1FE6F01EB0C1102D8F0BC11
:1041E000BDE8008124425CBF01F5801E9EEAC47FC9
:1041F00002D4F0BCBDE80081244238D4F0BCA1F167
:10420000C041BDE8004100F0EDB94FEAD22242EAD8
:1042100043524FEAD323A7FB02864FEAD02040EA5D
:10422000415007FB03661EEA0E0F4FEAD12105FB42
:10423000026658BFA6EB0056B6EB00564FEA520E88
:104240004EEAC37E18EB0E0E56EB530EBDD518EB9F
:1042500002085E417F1C55F10005B6E74FF480155A
:104260004FF000074FF000064FF00008ADE7F0BC3C
:104270004FF0000001F1C04101F00041BDE80081B4
:1042800011EA0C1F0CEA131500D00CE013EA0C1F06
:1042900000F025804FF00000F0BC81EA030101F03E
:1042A0000041BDE80081F0BCBDE8004181EA0301A6
:1042B00000F098B9F0BCBDE8004170B500F044F9D9
:1042C000097EFC3E00F007B881EA03014FF00000D0
:1042D00001F00041704781EA030100F083B9F0BCAE
:1042E000BDE800414FF0000021497047FFFDFBF998
:1042F000F7F5F4F2F0EEEDEBE9E8E6E4E3E1E0DE19
:10430000DDDBDAD8D7D5D4D3D1D0CFCDCCCBCAC88A
:10431000C7C6C5C4C2C1C0BFBEBDBCBBBAB9B8B7B1
:10432000B6B5B4B3B2B1B0AFAEADACABAAA9A8A8A4
:10433000A7A6A5A4A3A3A2A1A09F9F9E9D9C9C9B72
:104340009A9999989797969595949393929191901D
:104350008F8F8E8E8D8C8C8B8B8A898988888787AE
:104360008685858484838382828181800000FF0723
:104370000000F87F4FEA1153A3F58063D3F11E03C9
:10438000A8BFD3F1200C08DB4FF0004242EAC12263
:1043900052EA505232FA03F0704709420BD4102B04
:1043A000C4BF0020704703F5787CBCF1FF3F05D007
:1043B0004FF0FF3070474FF00000704770B500F0CD
:1043C000C3F800BF4992248000207047F0E7B0FA9C
:1043D00080F310FA03F10AD0C3F11D0303F58063E3
:1043E0004FEA41504FEA035202EBD12170474FF0A0
:1043F00000007047DFF848C170B51CEA111E1EBFEF
:104400001CEA13159EEA0C0F95EA0C0F00F06F8062
:1044100081EA030423EA4C134EEAD47E21EA4C11CC
:1044200041F4801143F48013AE44A1FB024CA0FB85
:104430000365AEF17F7E361955EB0C05A1FB034CED
:104440004CF10003A0FB021C16EB0C06654153F176
:104450000003094218BF46F0010613F4007F0BD198
:104460004FEA03314FEA0530340341EA155140EA7F
:1044700016506FF003020AE04FEAC3214FEAC5204D
:10448000F40241EA555140EA56506FF0020202EB45
:104490002E4201EB025585EACE710AD05FEA440C48
:1044A00018BF24F0004450F1000041F1000120EA5F
:1044B000D47040F2FE7C624500D270BDA84214BFA9
:1044C0004FF080444FF04044002E08BF0024BEF15E
:1044D000806FA8BFA1F1C041BDE8704080F282802A
:1044E0004FF0000001F1C04101F0004170479EEA29
:1044F0000C0F0CEA131518BF95EA0C0F06D04FF0FD
:10450000000081EA030E0EF0004170BD00F01CF8BF
:104510008900013E00F007B800F009B84FEA430CEB
:104520005FEA5C5C08D081EA030100F05BB84FEA07
:10453000410C5FEA5C5CF6D14FF000000149704726
:104540000000FF070000F87F0EF1020E2EF0030EB0
:104550005EF8046B364205D4012A43EB030515F5DA
:10456000001F12D8012841EB010C1CF5001F0CD8CC
:104570000ED14FEAD17C15F5001F0CEB4C0C0CF161
:10458000020C08BF4CEBD37C04E04FF0080C01E0B8
:104590004FEAD37C0CEB4C0526FA05F606F007062D
:1045A000B6F1040C06D20EEB860CBDE870404CF060
:1045B000010C6047DFE80CF0090B02024FF00041EC
:1045C0004FF00000A1F5002170BD194610460128EA
:1045D00051EB010418BFD4F5001484BF002001F092
:1045E000004170BD0808A0F500114FEA3101704785
:1045F00091EA030F10B581F000413FF5C3AC83F0A1
:10460000004300F009B8000010B591EA030F48BF5D
:1046100083F000433FF5B6AC841A71EB030C07D26C
:1046200012198CF0004C43EB0C03001B61EB0C01E6
:10463000DFF8A4E14FEA1154A4EB135C1EEA430F28
:1046400018BF9EEA445F00F0B08023EA6E03524236
:1046500021EA0451C3EB6E0338BF5B1EDCF1200E70
:1046600025D322FA0CFE10EB0E0043FA0CFE41EBB0
:104670000E01CCF1200E03FA0EFE10EB0E0051F1EC
:104680000001CCF1200E29D412FA0EF201EB0451F4
:10469000BDE8104058BF7047401C1CBFB2F1004F2E
:1046A000704700280CBF491C20F00100704712EB36
:1046B000020E43EB030218BF4FF0010E4EEA420216
:1046C000ACF1200CDCF11E0E54D943FA0CFE10EBB9
:1046D0000E0051F1FF31CCF11E0ED5D50EF1010EB9
:1046E00012FA0EFE404141EB010101EB445C5FEA2E
:1046F0005C5C10D910EBDE7001EB045138BFBEF1E9
:10470000004FBDE8104018BF704700280CBF491C7F
:1047100020F00100704730D24FEAD42C11F500117F
:1047200024F400641BD0B1FA81F20B3AA41AA41E3F
:10473000D2F12003914030FA03F31943904001EB8A
:10474000CC71002C01EB0451BDE81040A8BF7047AC
:1047500001F1C0414FF0000001F000417047B0FA94
:1047600080F310FA03F100D110BDE41A173C48059C
:10477000C90AE4E701EB045110BD491001EB0451F3
:10478000BDE810404FEA300002E04FF000017047F2
:104790004A0008BF0042F8D0B2F5001F28BF70479A
:1047A00001F000414FF0000070479EEA445F07D0DF
:1047B00011EA5E0FBDE8104004BF002100207047E1
:1047C000BDE8104070B5FFF7BFFE00BF40DFF63E0A
:1047D00083F00041104670470000E0FF0000000039
:1047E00000000000010203040607080900000000A1
:1047F000010203043A7474003A7474003A74740049
:104800003D3D3D5468652064656661756C74207437
:10481000656D7065726174757265206973202564B9
:1048200020646567726565732043656C7369757391
:104830002C20656E746572206120706F73697469D5
:10484000766520696E746567657220616E6420709C
:104850007265737320456E74657220746F2063688F
:10486000616E67653D3D3D0A000000009C490008FF
:10487000000000202C0000006C010008C84900085E
:104880002C000020E408000088010008100100004E
:1048900043000000F8FFFFFF004040404040404020
:1048A0004040414141414140404040404040404003
:1048B00040404040404040404005020202020202A7
:1048C00002020202020202020220202020202020F6
:1048D000202020020202020202029090909090900A
:1048E00010101010101010101010101010101010C8
:1048F000101010100202020202028888888888883C
:104900000808080808080808080808080808080827
:10491000080808080202020240000000000000002F
:104920000000000000000000000000000000000087
:104930000000000000000000000000000000000077
:104940000000000000000000000000000000000067
:104950000000000000000000000000000000000057
:104960000000000000000000000000000000000047
:104970000000000000000000000000000000000037
:104980000000000000000000000000000000000027
:104990000000000000000000000000001400000003
:1049A0000000000000000000000000000100000006
:1049B00010000000000000000024F40000000000CF
:0849C0000000000000000000EF
:0400000508000131BD
:00000001FF
