:1000000002015DEF8DF0A4A8F0CF8CF0A428CE8D76
:10001000F0A42EFE22BC000BBE0029EF8DF084FF61
:10002000ADF022E4CCF875F008EF2FFFEE33FEECD4
:1000300033FCEE9DEC984005FCEE9DFE0FD5F0E9FB
:10004000E4CEFD22EDF8F5F0EE8420D21CFEADF0FA
:1000500075F008EF2FFFED33FD4007985006D5F0FF
:10006000F222C398FD0FD5F0EA221200F41200C963
:10007000AB077A007F8412014E7C007DC3AF037E04
:10008000001200037C277D1012011D7F2E12012417
:100090007C007DC3AF037E001200037C277D10121D
:1000A00000157E037FE81201177C007DC3AF037E3D
:1000B000001200037C037DE81200157E007F6412AD
:1000C00001177F5612012480A4C2A3C2A4E4FFEF4B
:1000D000C39408748094805011EC25E0FCA2A5E440
:1000E000334204D2A3C2A30F80E5D2A47F1412012D
:1000F00038AF04227F0A1201387F381201337F0C97
:100100001201337F061201337F101201337F381240
:10011000014E7F0A020138CFCDCFCECCCE120015D2
:10012000EF2430FFD2A0C2A1D2A28F80C2A27F0151
:1001300002013812014E7F0AAD071FED600FE4FE89
:10014000EEC3947B7480948050EE0E80F322C2A0A4
:10015000C2A1D2A28F80C2A27F01020138787FE4BF
:09016000F6D8FD75810702006A62
:00000001FF
