:10000000020003787FE4F6D8FD75810A02004A02F7
:10001000008FE493A3F8E493A34003F68001F20871
:10002000DFF48029E493A3F85407240CC8C333C435
:10003000540F4420C8834004F456800146F6DFE4A0
:10004000800B010204081020408090013FE47E01F3
:100050009360BCA3FF543F30E509541FFEE493A313
:1000600060010ECF54C025E060A840B8E493A3FA25
:10007000E493A3F8E493A3C8C582C8CAC583CAF0B1
:10008000A3C8C582C8CAC583CADFE9DEE780BE123D
:1000900000D97F8012011DE4FCEC90014693FF60C3
:1000A0000612012E0C80F27FC712011DE50A75F0C1
:1000B0000A842430FF12012EE50A75F00A84E5F067
:1000C0002430FF12012E7FE87E03120103050AE5AA
:1000D0000A646470D2F50A80CE1200FF7F381200E5
:1000E000FC7F0C1200FC7F061200FC7F101200FC4B
:1000F0007F3812011D7F0A7E0002010312011D7F5D
:100100000A7E00EF1FAA0670011E4A600FE4FDED93
:10011000C3947B7480948050EA0D80F322C290C215
:1001200091D2928F80C2927F017E00020103D29011
:10013000C291D2928F80C2927F017E0002010301A0
:10014000080001090000307E39392073746F707720
:06015000617463683A00CF
:00000001FF
