:10000000020003787FE4F6D8FD75810F02004A02F2
:10001000008FE493A3F8E493A34003F68001F20871
:10002000DFF48029E493A3F85407240CC8C333C435
:10003000540F4420C8834004F456800146F6DFE4A0
:10004000800B01020408102040809000C7E47E016C
:100050009360BCA3FF543F30E509541FFEE493A313
:1000600060010ECF54C025E060A840B8E493A3FA25
:10007000E493A3F8E493A3C8C582C8CAC583CAF0B1
:10008000A3C8C582C8CAC583CADFE9DEE780BEE46B
:10009000FCECC394087480948050F474082CF8E647
:1000A000F5A0EC9000D293F5807F011200B10C8096
:1000B000E0AD071FED600FE4FEEEC3947B74809407
:1000C0008050EE0E80F322080800010203040506AA
:0A00D00007003F065B4F666D7D07D9
:00000001FF
