:10000000020003787FE4F6D8FD75810902004A02F8
:1000100000BAE493A3F8E493A34003F68001F20846
:10002000DFF48029E493A3F85407240CC8C333C435
:10003000540F4420C8834004F456800146F6DFE4A0
:10004000800B01020408102040809000EAE47E0149
:100050009360BCA3FF543F30E509541FFEE493A313
:1000600060010ECF54C025E060A840B8E493A3FA25
:10007000E493A3F8E493A3C8C582C8CAC583CAF0B1
:10008000A3C8C582C8CAC583CADFE9DEE780BEE56A
:100090009054016401601B7F0A1200D4E590540162
:1000A00064016013E5094508700DF5087509017FC5
:1000B0000122E4F508F5097F0022E4FC12008FEF2D
:1000C000640170070CEC640A7001FCEC9000EF9383
:1000D000F58080E8AD071FED600FE4FEEEC3947B72
:1000E0007480948050EE0E80F3220208000000C05D
:0900F000F9A4B0999282F8809005
:00000001FF
