:020000040800F2
:10000000D0040020490100080B1D0008371C00081F
:10001000091D000895070008B51F00080000000032
:100020000000000000000000000000002F1D00087C
:10003000CF070008000000002D1D0008311D00083A
:100040006301000863010008630100086301000800
:1000500063010008630100086301000863010008F0
:1000600063010008630100086301000899070008A4
:1000700063010008630100086301000863010008D0
:1000800063010008630100085906000863010008C5
:1000900063010008630100086301000863010008B0
:1000A00063010008630100086301000863010008A0
:1000B0006301000863010008630100086301000890
:1000C0006301000863010008630100086301000880
:1000D0006301000863010008630100086301000870
:1000E0006301000863010008630100086301000860
:1000F0006301000863010008630100086301000850
:10010000630100086301000863010008630100083F
:10011000630100086301000863010008630100082F
:10012000630100086301000863010008630100081F
:10013000DFF810D000F07EFA004800475523000891
:10014000AFF30080D00400200648804706480047EF
:10015000FEE7FEE7FEE7FEE7FEE7FEE7FEE7FEE777
:10016000FEE7FEE7991D000831010008202A04DBA4
:10017000203A21FA02F00021704721FA02F3D04020
:10018000C2F120029140084319467047D2B201E003
:1001900000F8012B491EFBD270470022F6E710B58C
:1001A00013460A4604461946FFF7F0FF204610BDE5
:1001B0002DE9FE4F804681EA0300C00F0C460090F7
:1001C00021F0004123F00045B8EB0200A94105D21F
:1001D0004046214690461C460B46024623F000400E
:1001E000104347D0270DC7F30A00C3F30A5102900A
:1001F000401A019040286BDAC3F3130040F4801BCF
:100200000098924620B10023D2EB030A63EB0B0B5C
:1002100001985946C0F14002504600F08DF906465B
:100220000D4650465946019A00F095F910EB08002A
:100230006141002487EA115284EAE7731A4340D0EF
:10024000009A62B3019A012A4FEA075215DC001B9B
:1002500061EB02014FF0004202EA0752CDE9004291
:10026000001C41F5801132462B4600F095F903B091
:10027000BDE8F08F40462146F9E7001B61EB020123
:10028000001C41F5801300185B412018A2F50017EF
:1002900047EB030140EAD570B6196D4111E06D08D6
:1002A0004FEA360645EAC0754FEA0752001B61EB7C
:1002B0000201001C41F5801149084FEA3000001985
:1002C000514132462B4603B0BDE8F04F00F055B91E
:1002D0000098012240000023D0EB020263EBE073A0
:1002E000009821464FEAE074B8EB000061EB04018E
:1002F000E9E783F000435BE781F0004158E72DE92F
:10030000FE4F81EA030404F0004421F00041009410
:100310004FF0000B23F0004350EA01045ED052EA94
:1003200003045BD0C3F30A54C1F30A552C44A4F26E
:10033000F3340194A0FB0254C1F3130141F4801182
:10034000C3F3130343F4801301FB024400FB034E89
:10035000840A970A44EA815447EA8357A4FB076852
:1003600002958D0A05FB07854FEA932C04FB0C547C
:100370002705029D4FEA065847EA1637B5EB0805F0
:100380006EEB070C870E920E47EA811742EA831242
:10039000A7FB0201B6EB0B0164EB00042B0D43EA53
:1003A0000C335E1844EB1C50DA465146E7FB020161
:1003B000C5F313044FEA0B3343EA14534FEA0432F4
:1003C000019C43EA0603A4F10C040294009CCDE9CD
:1003D00000B400F0E1F803B0BDE8F08F0020014662
:1003E000F9E72DE9F04D81EA030404F0004B21F018
:1003F000004514464FF0000A23F0004150EA050280
:1004000020D054EA01021DD0C5F30A570246C5F3B5
:100410001303C1F31300C1F30A5640F4801543F4EB
:100420008013A7EB0608101BD64608F2FD3873EBC5
:10043000050002D308F1010801E092185B41B8F110
:10044000000F03DA00200146BDE8F08D00204FF4D4
:100450008011064684460EE0171B73EB050705D393
:10046000121B63EB050306434CEA010C49084FEAF3
:10047000300092185B4150EA0107EDD152EA0300C7
:1004800012D082EA040083EA0501084305D0101B5C
:10049000AB4106D20122002306E000224FF00043C8
:1004A00002E06FF0010253101AEB06004CEB08510A
:1004B00010EB0A0041EB0B01BDE8F04D00F05DB818
:1004C0000EB540F2334102910021CDE900110A46F8
:1004D0000B4600F061F803B000BDC1F30A5210B53D
:1004E000C1F3130140F2FF3341F480119A4201DA63
:1004F000002010BD40F233439A42A2F2334203DCA3
:100500005242FFF733FE10BD904010BD30B50B4690
:10051000014600202022012409E021FA02F59D4233
:1005200005D303FA02F5491B04FA02F52844151E07
:10053000A2F10102F1DC30BD202A04DB203A00FAEE
:1005400002F1002070479140C2F1200320FA03F32A
:10055000194390407047202A06DBCB17203A41FA16
:1005600002F043EAE07306E041FA02F3D040C2F140
:100570002002914008431946704710B5141E73F1CC
:10058000000408DA401C41F1000192185B411A4353
:1005900001D120F0010010BD2DE9F04D92469B469F
:1005A00011B1B1FA81F202E0B0FA80F22032904645
:1005B000FFF7C2FF04460F4640EA0A0041EA0B017A
:1005C00053465A46084313D0114653EA010019D046
:1005D000C8F140025046FFF7C9FD05460E46504699
:1005E00059464246FFF7A8FF084305D0012004E022
:1005F00020463946BDE8F08D0020054346EAE07606
:100600002C4337430A986305E40AA0EB0800002254
:10061000FD0A44EA47540A3002D500200146E9E7C2
:10062000010510196941DDE9084500196941BDE876
:10063000F04DA2E7064C074D06E0E06840F00103EC
:1006400094E8070098471034AC42F6D3FFF774FDE6
:100650006024000880240008014800F0A2B90000CE
:100660001800002070B5044600688168C943C907B6
:100670001CD1816821F00101816000F0F7FD054681
:100680000FE000BF00F0F2FD401B022809D9A06A6C
:1006900040F01000A062E06A40F00100E06201203A
:1006A00070BD20688068C043C007EBD0002070BDDB
:1006B00010B50146406A826A12F0500F05D0006AF8
:1006C000026BBDE8104008461047816A41F4007192
:1006D000816201688968C1F3424107290CD1C16870
:1006E00051B9816A21F480718162816AC90403D49D
:1006F000816A41F00101816200F050F910BD10B52E
:10070000406A816A41F040018162C16A41F004019E
:10071000C16200F045F910BD10B5406A00F03FF924
:1007200010BD0000F8B500260446009600688168F8
:10073000C943C90728D0816841F00101816013488D
:1007400013490068B0FBF1F000E0401E0090002863
:10075000FBD100F08BFD054611E000BF00F086FDE7
:10076000401B02280BD9A06A40F01000A062E06A8A
:1007700040F00100E06284F824600120F8BD2068A8
:100780008068C043C007E9D10020F8BD10000020F8
:1007900040420F00FEE70000014800F0C7BA000029
:1007A0004800002030B590F840500124AC40C56BA3
:1007B0006C60046863604368102B036803D0996021
:1007C0000068C26030BD9A600068C16030BD70478B
:1007D00070470000F8B500250446009590F8240005
:1007E000012808D0012084F824002046FFF73AFFB2
:1007F000060002D04BE00220F8BDA06A20F4885029
:1008000040F00200A062022000F0CCFD22490968FD
:10081000B1FBF0F0400000E0401E00900028FBD14A
:100820002046FFF77FFF2068816841F00801816062
:1008300000F01CFD074604E000F018FDC01B0A286C
:1008400011D8206880680007F6D42068816841F0DC
:100850000401816000F00AFD07460EE000F006FD8D
:10086000C01B0A2809D9A06A20F0020040F010003D
:10087000A06284F824500120F8BD206880684007F9
:10088000ECD4A06A20F0020040F00100A06284F8DD
:1008900024503046F8BD00001000002070470000D2
:1008A000F8B50024009490F824202546012A12D09F
:1008B000012280F824204A681F23072A0DD20668E7
:1008C000776B521E02EB820293409F430B6893406A
:1008D0001F43776319E00220F8BD06680D2A0AD28B
:1008E000376BD21F02EB820293409F430B68934009
:1008F0001F43376309E0F76A0D3A02EB8202934027
:100900009F430B6893401F43F7620A6807230668FA
:100910000A2A0AD3F7680A3A02EB420293409F433D
:100920008B6893401F43F76008E0376902EB42028F
:1009300093409F438B6893401F4337610A68102A96
:1009400001D0112A20D1124B02689A4217D1936824
:100950001B0219D4936843F40003936009681029BB
:1009600012D10C490C4A0968B1FBF2F101EB81018B
:10097000490000E0491E00910029FBD104E0816A92
:1009800041F020018162012480F824502046F8BD06
:10099000002401401000002040420F0070477047C3
:1009A000704710B5044600684168890626D501687D
:1009B000890723D5A16AC90603D4A16A41F400714D
:1009C000A1628168C1F34241072910D1E16871B980
:1009D000416821F020014160A06A20F48070A0628B
:1009E000A06AC00403D4A06A40F00100A0622046BF
:1009F000FFF7D4FF21686FF012000860206841689B
:100A000009062ED5016849072BD5A16AC90603D46A
:100A1000A16A41F40051A1628168C1F30231072942
:100A200009D04168490515D48168C1F342410729BD
:100A300010D1E16871B9416821F080014160A06A7C
:100A400020F48050A062A06AC00503D4A06A40F0E0
:100A50000100A0622046FFF721FF21686FF00C0023
:100A600008602068416849060DD50068C0070AD0B3
:100A7000A06A40F48030A062204600F095F821681A
:100A80006FF00100086010BD2DE9F04104004FF047
:100A900000057FD0A06A002628B9E66284F82460A9
:100AA000204600F083F82046FFF7DCFDA16AC90666
:100AB00000D420B1A06A40F01000A0626AE0A16AF0
:100AC00021F4885141F00201A162334923688B422D
:100AD000E16904D1B1F5402F01D14FF40021E7685D
:100AE0004FF4807C41EA470261680A43A16861458E
:100AF00008D0012906D00021D4F814E0BEF1010F7E
:100B000002D00AE06146F7E7C7B1A76A47F02007BD
:100B1000A762E76A47F00107E7625F6827F4694761
:100B20000F435F60236899681C4F394011439960F7
:100B3000A16861450BD0012909D00CE0DFF860E025
:100B4000A7690EEB47370F4347F40061E5E7218AB9
:100B50000D05A5F580152168CB6A23F470032B439E
:100B6000CB62216889680F4B1940914208D1E66237
:100B7000A16A21F0020141F00101A162BDE8F0810A
:100B8000A06A20F0020040F01000A062E06A40F08D
:100B90000100E0620120F1E7003C0140FDF7E1FFC8
:100BA00000E0FFFFFE0E1FFF7047000038B505464E
:100BB0000068174988422AD11648816941F40071BA
:100BC00081618069154C00F400700090124820602B
:100BD00000206060A0608020E06040002061800014
:100BE00060612020A0610002E061204600F0C2F9AF
:100BF00008B1FFF7EDFD2C6200221146122065625C
:100C000000F09EFBBDE83840122000F08DBB38BDDF
:100C1000002401400010024008000240480000206B
:100C20002DE9F047894604463B4900683B4F0E1DBD
:100C30009046884201D0B84207D1306810F4702F36
:100C400003D001252846BDE8F08794F82400012848
:100C50000CD0012084F824002046FFF763FD050036
:100C60004FF0000004D084F82400EBE70220EAE70C
:100C7000A16A40F60162914341F48071A16221684A
:100C8000B94218D1326812F4702F14D0A16A41F41D
:100C90008011A1623168490505D5A16A21F400518E
:100CA00041F48051A162A16AC9040AD5E16A21F028
:100CB0000601E16206E0A26A22F48012A26249689B
:100CC000E9E7E06284F82400216A15488862216A15
:100CD0001448C862216A1448086321686FF0020052
:100CE00008602068816841F4807181602168434612
:100CF0004A464C31206A00F07BF920688168C1F3D4
:100D000042410729816803D041F48011816099E74D
:100D100041F4A001FAE7000000240140002801404E
:100D2000B106000819070008FF0600082DE9F05F6A
:100D3000C16B0A6801680B68046C4FF0040808FA7C
:100D400004F8844D844E854FDFF814C2DFF8149206
:100D5000DFF814A2DFF814B2DFF814E218EA020F89
:100D600065D05FEA437862D50A68920603D40A68C0
:100D700022F004020A60DFF8F0814FF4806201681B
:100D800008F1140813011402414524D9A9420DD0D9
:100D9000B1420FD0B9421AD0614515D0494515D09E
:100DA000514501D1120312E0594501D104220EE050
:100DB000714501D140220AE06D4D1435A94206D09B
:100DC0006B4A2832914201D11A4600E02246674917
:100DD000091F0A6029E0A94213D0B14215D0B942D7
:100DE00020D061451BD049451BD0514502D14FF45D
:100DF000800217E0414502D14FF0806212E0594570
:100E000001D104220EE0714501D140220AE0584D83
:100E10001435A94206D0564A2832914201D11A46C9
:100E200000E022464B4908394A60C16A71E04FF040
:100E3000020808FA04F818EA020F70D05FEA837813
:100E40006DD50A68920606D40A6822F00A020A6082
:100E5000012180F82110DFF810814FF40072016841
:100E600008F1140813011402414524D9A9420DD0F8
:100E7000B1420FD0B9421AD0614515D0494515D0BD
:100E8000514501D1120312E0594501D102220EE071
:100E9000714501D120220AE0354D1435A94206D012
:100EA000334A2832914201D11A4600E022462F49A6
:100EB000091F0A6029E0A94213D0B14215D0B942F6
:100EC00020D061451BD049451BD0514502D14FF47C
:100ED000001217E0414502D14FF0007212E059456F
:100EE00001D102220EE0714501D120220AE0204DFD
:100EF0001435A94206D01E4A2832914201D11A4621
:100F000000E02246134908394A60002180F8201089
:100F1000816A00291CD0BDE8F05F0847FFE708257B
:100F2000A540154214D01A0712D50A6822F00E0205
:100F30000A6090F84020C36B012101FA02F25A6066
:100F4000816380F82110002180F82010016BE0E718
:100F5000BDE8F09F080002401C0002403000024043
:100F600044000240580002406C0002400804024065
:100F70001C04024030B560B11A4B026814219A4239
:100F800009D2194B1344B3FBF1F1890001641749ED
:100F90000AE0012030BD134B5B421344B3FBF1F177
:100FA000890001640F490839C163022180F82110CA
:100FB000136843F6F0718B43F0E901142143D0E943
:100FC00002452C4321430469214344692143846938
:100FD00021431943116000214163012242770177C7
:100FE000084630BD08040240F8FFFDBF0000024083
:100FF00070B5044690F82000002501280CD001208F
:1010000084F8200094F821600020012E06D084F896
:1010100020000225284670BD022070BD022684F8FB
:101020002160A0632068066826F00106066020465D
:10103000FFF7B8FBE06A00282068016802D041F0A1
:101040000E0106E021F0040101602068016841F012
:101050000A0101602068016841F001010160D9E7DF
:1010600070B5044600F002F90546601C02D0044841
:101070000078044400F0FAF8401BA042FAD370BD97
:10108000040000202DE9F84FDFF8B8A100220AF192
:10109000040B144601274FF00F090BF1040E00BF9B
:1010A0000B6807FA04F52B40AB4274D1DFF898C106
:1010B0004E68A6EB0C0866452BD00DDC032E34D011
:1010C00005DC36B3012E19D0022E2FD11BE0112ED4
:1010D00016D0122E2AD119E0B8F5881F19D006DCD7
:1010E000B8F5803F15D0B8F5801F1FD111E0B8F5D5
:1010F000001F0ED0B8F5041F18D10AE0CA6815E029
:10110000CA68121D12E0CA6808320FE0CA680C32C1
:101110000CE08A682AB1012A4FF0080203D0456129
:1011200004E0042202E0056100E00022FF2B01D868
:10113000064601E000F104064FEA840501D9A5F155
:101140002005D6F800C009FA05F82CEA080C02FAC6
:1011500005F54CEA050CC6F800C04D68ED006AD5EF
:101160003A4DAE6946F00106AE61AD6924F0030662
:1011700005F001050095364D06EB050CDCF808502E
:10118000A6074FEA167809FA08F6B543314EB04281
:1011900002D100261AE04EE02F4EB04201D10126C6
:1011A00014E02E4EB04201D102260FE02C4EB04288
:1011B00001D103260AE02B4EB04201D1042605E0FE
:1011C000294EB04201D1052600E0062606FA08F6AF
:1011D0002E43CCF808604D68DAF80060ED03554600
:1011E00001D51E4300E09E432E604D68AD0305D53A
:1011F000DBF800601E43CBF8006004E0DBF8005031
:101200009D43CBF800504D68DEF80060ED02754656
:1012100001D51E4300E09E432E604D68AD0205D50A
:10122000084D0C352E681E432E6004E0054E0C362A
:1012300035689D433560641C102CFFF431AFBDE868
:10124000F88F00000004014000001110001002405F
:101250000000014000080140000C01400010014066
:101260000014014000180140001C01400148806842
:101270007047000004000020024881680278114491
:101280008160704704000020074810B5016841F0F4
:1012900010010160032000F073F8002000F006F850
:1012A00000F024F8002010BD0020024070B50D4D64
:1012B00004464FF47A712878B1FBF0F00A490968C6
:1012C000B1FBF0F000F0DCFB48B9102C07D2002293
:1012D0002146501E00F034F800206C6070BD0120E3
:1012E00070BD000004000020100000200C4808B56C
:1012F000816941F001018161816901F00101009181
:10130000C16941F08051C161C06900F08050009016
:101310000448416821F0E06141F08061416008BD0E
:10132000001002400000014000F01F020121914026
:101330004009800000F1E020C0F800117047000073
:10134000F0B40E4B1B680C46C3F30223C3F1070530
:10135000042D00D90425191D072901D2002300E01E
:10136000DB1E012606FA05F1491E214099409E40E8
:10137000761E16403143F0BC00F0C8BC0CED00E016
:10138000064900F0070208684FF6FF03184040EADC
:101390000220034A10430860704700000CED00E093
:1013A0000000FA0510B52CA401461DCC86B08DE8CE
:1013B0001D002DA02D4C00680490002004292FD082
:1013C0000BDC01292FD0022928D100F091F96168A6
:1013D000C1F38131491C49001EE0082920D01029A1
:1013E0001CD161682268D20118D5C1F38342C903B8
:1013F0001DF8020009D5616804AAC1F34041515C9F
:101400001B4AB2FBF1F1484301E01A4948436168C5
:10141000490203D440000321B0FBF1F006B010BD37
:1014200000F076F9FAE7226AC2F30121012903D11B
:10143000920701D5C803F1E7022905D1626A920734
:1014400002D549F64040E9E70329E7D1216889033D
:10145000E4D54FF22440E1E702030405060708093A
:101460000A0B0C0D0E0F10100102000000100240BC
:1014700000127A0000093D002DE9F8430546007886
:10148000354CC00754D0E0690026C00008D4E0699C
:1014900040F08050E061E069012600F0805000904B
:1014A0002E480168C90512D40168804641F4807154
:1014B0000160FFF7DBFE074605E000BFFFF7D6FE41
:1014C000C01B642823D8D8F80000C005F6D5206AD0
:1014D00010F4407021D0A98801F4407181421CD0E1
:1014E000206A1F49012220F440700A6000220A602D
:1014F0002062C00711D0FFF7B9FE074641F28838D5
:1015000008E000BFFFF7B2FEC11B414502D903202E
:10151000BDE8F883206A8007F4D5206A696820F462
:101520004070084320621EB1E06920F08050E06105
:101530002878800705D56068A96820F440400843F2
:1015400060602878C00605D56068696920F480006D
:10155000084360600020DBE700100240007000409C
:10156000400442422DE9F047DFF8548105460E461B
:10157000D8F8000000F00700B0420CD2D8F80010F4
:1015800021F007013143C8F80010D8F8000000F03E
:101590000700B0426FD128684A4C810712D5400736
:1015A00003D5606840F4E06060602878000703D5E8
:1015B000606840F4605060606068A96820F0F000E6
:1015C000084360602878C00744D06868012816D0B6
:1015D0002168022816D0890700294CDA616821F0B9
:1015E000030101436160FFF741FE6968074641F26C
:1015F000883001290ED00229814618D026E02168C2
:101600008903E9E78901E7E7FFF730FEC11B494598
:1016100001D918E081466068C0F381000128F3D148
:1016200018E000BFFFF722FEC11B49450BD86068D8
:10163000C0F381000228F5D10CE000BFFFF716FED1
:10164000C11B494502D90320BDE8F087606810F04E
:101650000C0FF3D1D8F80010404601F00701B14259
:101660000BD9016821F0070131430160006800F0E7
:101670000700B04201D00120E6E72878400705D5F1
:101680006068E96820F4E06008436060287800073B
:1016900006D56068296920F4605040EAC1006060A6
:1016A00000F036F86168084AC1F30311515CC84084
:1016B000064908600020FFF7F9FD0020C4E700009C
:1016C00000200240001002404824000810000020C2
:1016D0000448054900684968044AC1F30221515C85
:1016E000C840704710000020001002405824000835
:1016F0000448054900684968044AC1F3C221515CA5
:10170000C840704710000020001002405824000814
:1017100012A185B00FC98DE80F0014A0144A00680B
:1017200004905168134801F00C03042B10D0082BCF
:101730000ED1C1F38343C9031DF803000AD55168D4
:1017400004AAC1F34041515C0A4A5043B0FBF1F096
:1017500005B0704708494843FAE700000203040552
:10176000060708090A0B0C0D0E0F101001020000ED
:101770000010024000127A0000093D002DE9F84FE8
:1017800004460078B94DC00748D06868C0F38100AE
:10179000012807D06868C0F38100022809D1686871
:1017A000C00306D52868800338D5606800286FD04C
:1017B00034E06068B0F5803F0BD010B1B0F5A02FD9
:1017C00011D0286820F480302860286820F4802018
:1017D00002E0286840F480302860606888B1FFF734
:1017E00045FD064609E0286840F480202860F0E7BF
:1017F000FFF73CFD801B642875D828688003F7D567
:101800000CE0FFF733FD064605E000BFFFF72EFDB5
:10181000801B6428F0D828688003F7D42078944E81
:1018200080074FF001094FF000083BD5686810F0C1
:101830000C0F07D06868C0F38100022809D16868DE
:10184000C00306D42868800714D5206901281FD159
:1018500010E02069B0B1C6F80090FFF707FD074619
:1018600005E000BFFFF702FDC01B0228C4D82868AE
:101870008007F7D52868616920F0F80040EAC100C8
:1018800028600FE0C6F80080FFF7F0FC074606E08E
:10189000E9E000BFFFF7EAFCC01B022823D8286854
:1018A0008007F7D4207800072CD57248A169D9B1F8
:1018B000C0F80090FFF7DAFC074604E0FFF7D6FC1B
:1018C000C01B02280FD8686A8007F7D56A484FF412
:1018D000FA510068B0FBF1F0009000BF0098411E83
:1018E0000091FAD20EE080E0C0F80080FFF7BEFC65
:1018F000074604E0FFF7BAFCC01B022875D8686AE7
:101900008007F7D42078400760D5E8690027C00039
:1019100008D4E86940F08050E861E869012700F0E8
:101920008050009055480168C90513D4016883466A
:1019300041F480710160FFF799FC824606E000BF28
:10194000FFF794FCA0EB0A0064284ED8DBF80000F7
:10195000C005F5D5E06801280AD008B1052813D0E4
:10196000286A20F001002862286A20F0040002E0C2
:10197000286A40F001002862E06841F2883B98B193
:10198000FFF774FC82460BE0286A40F004002862EE
:10199000EEE700BFFFF76AFCA0EB0A0159455AD8F1
:1019A000286A8007F6D50CE0FFF760FC824605E068
:1019B000FFF75CFCA0EB0A0159454CD8286A800768
:1019C000F6D41FB1E86920F08050E861E06988B37F
:1019D0006968C1F38101022945D00228C6F86080F8
:1019E00004D0FFF743FC044638E034E0FFF73EFC48
:1019F000074604E0FFF73AFCC01B02282BD82868F2
:101A00008001F7D4206AB0F5803F05D16868A168ED
:101A100020F4003008436860D4E90801084369688D
:101A200021F4741108436860C6F86090FFF71EFC4B
:101A3000044606E015E000BFFFF718FC001B022873
:101A400009D828688001F7D50BE000BFFFF70EFC2E
:101A5000001B022802D90320BDE8F88F2868800106
:101A6000F4D40020F8E70120F6E70000001002405F
:101A700000004242800442421000002000700040FA
:101A800010B5401EB0F1807F01D3012010BD4FF092
:101A9000E02460610F21601700F038F90020A06198
:101AA00007202061002010BD70B5040004D094F818
:101AB0003900002510B106E0012070BD84F83850CF
:101AC000204600F023F8242084F839002068C168FB
:101AD00021F40051C160204600F082F920680169BC
:101AE00021F4904101612068416921F02A0141619E
:101AF0002068C16841F40051C160E563202084F88A
:101B0000390084F83A00002070BD000030B585B07F
:101B100000240094019402940394006814498842BC
:101B200024D11448816941F480418161816901F4C3
:101B300080410491816941F00401816180690E4D09
:101B400000F0040004904FF4007000900220019017
:101B50000320039069462846FFF794FA2815CDE93B
:101B60000004694628460294FFF78CFA05B030BDA0
:101B70000038014000100240000801402DE9F84300
:101B8000044690F839001F4616460D46202850D1CD
:101B9000A5B19EB194F8380001284AD0012084F8FC
:101BA00038004FF00008C4F83C80212084F8390048
:101BB000FFF75CFBA6848146E68426E00120BDE8B1
:101BC000F883E08C401EE084A0684B46B0F5805F4F
:101BD0004FF000024FF080012046009703D000F044
:101BE000B7F9E8B90DE000F0B3F9C8B92888216861
:101BF000C0F308004860206908B16D1C05E0AD1C09
:101C000003E0216815F8010B4860E08C0028D8D16A
:101C10004B46002240212046009700F099F908B178
:101C20000320CCE7202084F8390084F83880002095
:101C3000C5E70220C3E7FEE73EB500211148009149
:101C400001910F4A029102600124C0E9021441612E
:101C50004FF460220461C2614160FEF715FF08B1D4
:101C6000FEF7B6FD1020CDE900040520029069467C
:101C70000448FEF715FE002801D0FEF7A9FD3EBD81
:101C80000024014018000020094808B5416941F0CE
:101C9000010141614069002200F0010000901146FD
:101CA0000B20FFF74DFBBDE808400B20FFF73CBBC6
:101CB00000100240054808B5816941F004018161C6
:101CC000806900F00400009008BD00000010024090
:101CD0000C4810B50A4901604FF4E1314160002120
:101CE00081600C22C160C0E904128161C161FFF70B
:101CF000DBFE002803D0BDE81040FEF769BD10BD33
:101D0000003801408C000020FEE770470907090EEB
:101D1000002806DA00F00F0000F1E02080F8141D22
:101D2000704700F1E02080F800147047704770475A
:101D3000FFF7A2BA30B595B028216846FEF72DFA14
:101D400014210AA8FEF729FA18210FA8FEF725FA90
:101D500001210804CDE90010002402940225049119
:101D6000CDE907504FF4E01009906846FFF706FDF3
:101D70000F20CDE90A056802CDE90C4002210AA82E
:101D80000E94FFF7EFFBA80311900F950FA8FFF734
:101D900073FB15B030BD00000D48016841F0010132
:101DA000016041680B4A1140416001680A4A1140D4
:101DB0000160016821F480210160416821F4FE0185
:101DC00041604FF41F0181600449C00308607047FF
:101DD000001002400000FFF8FFFFF6FE08ED00E0F3
:101DE0002DE9F041044600680169E26821F44051A0
:101DF000114301612169A0680843616908432168B2
:101E0000CA6841F20C639A430243CA602068416980
:101E1000A26921F44071114341614C492068642555
:101E2000322688423CD1FFF763FC00EBC00101EB96
:101E3000001061688900B0FBF1F7FFF759FC00EB77
:101E4000C00101EB00106168B0468900B0FBF1F001
:101E5000B0FBF5F06FF01801484307EB800106EB8B
:101E60000110B0FBF5F000F0F006FFF741FC00EBCD
:101E7000C00101EB001061688900B0FBF1F0B0FB1C
:101E8000F5F006EB0016FFF733FC00EBC00101EBA9
:101E9000001061688900B0FBF1F7FFF729FC3BE017
:101EA000FFF716FC00EBC00101EB00106168890030
:101EB000B0FBF1F7FFF70CFC00EBC00101EB0010E9
:101EC0006168B0468900B0FBF1F0B0FBF5F06FF04F
:101ED0001801484307EB800106EB0110B0FBF5F059
:101EE00000F0F006FFF7F4FB00EBC00101EB00107F
:101EF00061688900B0FBF1F0B0FBF5F006EB00166D
:101F0000FFF7E6FB00EBC00101EB00106168890000
:101F1000B0FBF1F7FFF7DCFB00EBC00101EB0010B9
:101F200061688900B0FBF1F0B0FBF5F06FF01801CB
:101F3000484307EB800108EB0110B0FBF5F0216886
:101F400000F00F0030448860BDE8F08100380140A7
:101F50002DE9F041984617460E460446069D1DE0C1
:101F6000681C1BD02DB1FFF781F9A0EB0800A84237
:101F700014D92068C16821F4D071C160206841691A
:101F800021F001014161202084F8390084F83A00F1
:101F9000002084F838000320BDE8F0812068006844
:101FA00036EA000004D00020B842D9D00020F3E780
:101FB0000120F9E7FEE700000FB4054B10B503A9B7
:101FC000044A029800F018F810BC5DF814FB0000F9
:101FD0003D2300081400002002E008C8121F08C1B9
:101FE000002AFAD170477047002001E001C1121F9A
:101FF000002AFBD1704700002DE9FF4F8BB08846C7
:102000000546002606E025280BD0DDE90D12904795
:102010006D1C761C28780028F5D10FB03046BDE83D
:10202000F08F0024A146A2460122AE4900E00443FD
:1020300015F8013F203B02FA03F00842F7D1287857
:102040002A2810D06FF02F022878A0F1300109293A
:1020500015D809EB890102EB410144F0020400EBC1
:1020600001096D1CF0E758F8041B5FEA010903D56C
:1020700044F40054C9F1000944F002046D1C2878AE
:102080002E2817D115F8010F44F004042A280ED089
:102090006FF02F022878A0F1300109290AD80AEB45
:1020A0008A0102EB410100EB010A6D1CF2E758F8CE
:1020B00004AB6D1C28786C280FD006DC4C2817D098
:1020C00068280DD06A2814D104E0742810D07A282A
:1020D0000FD10DE044F400140AE044F4801401E050
:1020E00044F440146978814202D104F580146D1CD7
:1020F0006D1C2878692865D006DC00288DD06328FF
:1021000027D0642806D15DE06E2808D073282AD035
:10211000752877D0DDE90D129047761CE0E0C4F316
:102120000250022809D003280DD0D8F80010042846
:102130000DD00E6008F10408D2E0D8F80010F217B4
:10214000C1E90062F6E7D8F800100E80F2E70E70E1
:10215000F0E718F8041B8DF8001000208DF801003E
:10216000EB46012003E058F804BB4FF0FF30610755
:102170004FF0000701D40AE07F1C57450DDA874273
:10218000FADB1BF807100029F6D106E07F1C874216
:10219000FCDB1BF807100029F8D1DDE90D23A9EBC2
:1021A00007008146214600F0B1F83044C61904E02A
:1021B000DDE90D121BF8010B90477F1EF8D2214676
:1021C000484688E058F8040BC4F302514FF00A0B5C
:1021D000032900D100B2042900D140B2002802DA5C
:1021E00040422D2102E0210505D52B218DF8241038
:1021F000012104E006E0E10710D02021F6E708AF56
:10220000089113E058F8040BC4F302514FF00A0B85
:10221000032900D180B2042900D1C0B20021EEE729
:102220005946FEF773F9303107F8011D0028F7D140
:10223000ADEB070000F1200B600702D524F48034D9
:1022400001E04FF0010ADA4502DDAAEB0B0000E0E5
:102250000020824600EB0B0108980144A9EB010025
:102260000A90E00306D4DDE90D2321460A9800F028
:102270004DF806444FF0000908E009A911F80900DB
:10228000DDE90D12904709F10109761C089989458D
:10229000F3DBE0030CD5DDE90D2321460A9800F0BD
:1022A00035F8064404E0DDE90D1230209047761C35
:1022B000BAF10001AAF1010AF5DC05E0DDE90D1231
:1022C00017F8010B9047761CBBF10001ABF1010B35
:1022D000F4DC0A982146DDE90D2300F005F80644F8
:1022E0006D1C97E6092801002DE9F0410446002500
:1022F0001E461746880404D405E039462020B0471E
:102300006D1C641EF9D52846BDE8F0812DE9F04129
:10231000044600251E469046C80301D5302700E03C
:102320002027880404D505E041463846B0476D1C97
:10233000641EF9D52846BDE8F081000013B54FF6BC
:10234000FF73012269460248FFF718FC00981CBD84
:102350008C000020FEF798FFFFF7ECFCFFF7AAFCCB
:10236000FFF792FCFFF768FCFFF7B2FC1D48FEF791
:1023700031FA04221C491B48FEF752FC1A4C1B4F31
:10238000DFF86C80DFF86C90DFF86CA0DFF86CB0E1
:102390004FF47A754FF066362846FEF761FE18A0B6
:1023A000FFF70AFE2088FEF78BF832463B46FDF722
:1023B000A6FF00224346FEF714F84A465346FDF7AF
:1023C0009BFF5A46154BFEF70CF80022144BFDF705
:1023D000EFFEFEF782F881B2618012A0FFF7ECFDFC
:1023E000DAE70000180000200000002066660A40BE
:1023F00000FEAF40E17A14AE47E1F63F22FDF675EC
:102400002D2D2D2D4144432B444D412B55534152ED
:1024100054CAB5D1E92D2D2D2D2D0A00E09C713F18
:10242000000039400D0A20546865204D4355207442
:10243000656D7065726174757265203D2025336429
:10244000200D0A2000000000000000000000000035
:10245000010203040607080900000000010203044A
:10246000802400080000002018000000D81F000889
:102470009824000818000020B8040000E81F000895
:10248000000000000100000010000000000000003B
:082490000024F400000000002C
:0400000508000131BD
:00000001FF
